{
  "_format": "hh-sol-artifact-1",
  "contractName": "TubeDataPool",
  "sourceName": "contracts/TubeDataPool.sol",
  "abi": [
    {
      "inputs": [
        {
          "internalType": "address",
          "name": "_tubeToken",
          "type": "address"
        }
      ],
      "stateMutability": "nonpayable",
      "type": "constructor"
    },
    {
      "inputs": [
        {
          "internalType": "address",
          "name": "owner",
          "type": "address"
        }
      ],
      "name": "OwnableInvalidOwner",
      "type": "error"
    },
    {
      "inputs": [
        {
          "internalType": "address",
          "name": "account",
          "type": "address"
        }
      ],
      "name": "OwnableUnauthorizedAccount",
      "type": "error"
    },
    {
      "inputs": [],
      "name": "ReentrancyGuardReentrantCall",
      "type": "error"
    },
    {
      "anonymous": false,
      "inputs": [
        {
          "indexed": true,
          "internalType": "address",
          "name": "contributor",
          "type": "address"
        },
        {
          "indexed": true,
          "internalType": "bytes32",
          "name": "contributionHash",
          "type": "bytes32"
        },
        {
          "indexed": false,
          "internalType": "uint256",
          "name": "tokens",
          "type": "uint256"
        }
      ],
      "name": "DataRewarded",
      "type": "event"
    },
    {
      "anonymous": false,
      "inputs": [
        {
          "indexed": true,
          "internalType": "address",
          "name": "contributor",
          "type": "address"
        },
        {
          "indexed": true,
          "internalType": "bytes32",
          "name": "contributionHash",
          "type": "bytes32"
        },
        {
          "indexed": false,
          "internalType": "string",
          "name": "dataType",
          "type": "string"
        }
      ],
      "name": "DataSubmitted",
      "type": "event"
    },
    {
      "anonymous": false,
      "inputs": [
        {
          "indexed": true,
          "internalType": "bytes32",
          "name": "contributionHash",
          "type": "bytes32"
        },
        {
          "indexed": false,
          "internalType": "uint256",
          "name": "qualityScore",
          "type": "uint256"
        }
      ],
      "name": "DataValidated",
      "type": "event"
    },
    {
      "anonymous": false,
      "inputs": [
        {
          "indexed": true,
          "internalType": "address",
          "name": "previousOwner",
          "type": "address"
        },
        {
          "indexed": true,
          "internalType": "address",
          "name": "newOwner",
          "type": "address"
        }
      ],
      "name": "OwnershipTransferred",
      "type": "event"
    },
    {
      "anonymous": false,
      "inputs": [
        {
          "indexed": false,
          "internalType": "address",
          "name": "dataRegistry",
          "type": "address"
        },
        {
          "indexed": false,
          "internalType": "address",
          "name": "teePool",
          "type": "address"
        }
      ],
      "name": "VanaIntegrationUpdated",
      "type": "event"
    },
    {
      "inputs": [
        {
          "internalType": "address",
          "name": "contributor",
          "type": "address"
        },
        {
          "internalType": "string",
          "name": "dataType",
          "type": "string"
        },
        {
          "internalType": "bytes32",
          "name": "dataHash",
          "type": "bytes32"
        },
        {
          "internalType": "uint256",
          "name": "nonce",
          "type": "uint256"
        }
      ],
      "name": "calculateContributionHash",
      "outputs": [
        {
          "internalType": "bytes32",
          "name": "",
          "type": "bytes32"
        }
      ],
      "stateMutability": "pure",
      "type": "function"
    },
    {
      "inputs": [
        {
          "internalType": "bytes32",
          "name": "",
          "type": "bytes32"
        }
      ],
      "name": "contributions",
      "outputs": [
        {
          "internalType": "address",
          "name": "contributor",
          "type": "address"
        },
        {
          "internalType": "string",
          "name": "dataType",
          "type": "string"
        },
        {
          "internalType": "bytes32",
          "name": "dataHash",
          "type": "bytes32"
        },
        {
          "internalType": "uint256",
          "name": "timestamp",
          "type": "uint256"
        },
        {
          "internalType": "uint256",
          "name": "qualityScore",
          "type": "uint256"
        },
        {
          "internalType": "bool",
          "name": "validated",
          "type": "bool"
        },
        {
          "internalType": "bool",
          "name": "rewarded",
          "type": "bool"
        },
        {
          "internalType": "string",
          "name": "ipfsHash",
          "type": "string"
        }
      ],
      "stateMutability": "view",
      "type": "function"
    },
    {
      "inputs": [
        {
          "internalType": "address",
          "name": "",
          "type": "address"
        },
        {
          "internalType": "uint256",
          "name": "",
          "type": "uint256"
        }
      ],
      "name": "contributorHistory",
      "outputs": [
        {
          "internalType": "bytes32",
          "name": "",
          "type": "bytes32"
        }
      ],
      "stateMutability": "view",
      "type": "function"
    },
    {
      "inputs": [
        {
          "internalType": "address",
          "name": "",
          "type": "address"
        }
      ],
      "name": "contributorNonce",
      "outputs": [
        {
          "internalType": "uint256",
          "name": "",
          "type": "uint256"
        }
      ],
      "stateMutability": "view",
      "type": "function"
    },
    {
      "inputs": [],
      "name": "dataRegistry",
      "outputs": [
        {
          "internalType": "address",
          "name": "",
          "type": "address"
        }
      ],
      "stateMutability": "view",
      "type": "function"
    },
    {
      "inputs": [
        {
          "internalType": "bytes32",
          "name": "contributionHash",
          "type": "bytes32"
        }
      ],
      "name": "getContribution",
      "outputs": [
        {
          "components": [
            {
              "internalType": "address",
              "name": "contributor",
              "type": "address"
            },
            {
              "internalType": "string",
              "name": "dataType",
              "type": "string"
            },
            {
              "internalType": "bytes32",
              "name": "dataHash",
              "type": "bytes32"
            },
            {
              "internalType": "uint256",
              "name": "timestamp",
              "type": "uint256"
            },
            {
              "internalType": "uint256",
              "name": "qualityScore",
              "type": "uint256"
            },
            {
              "internalType": "bool",
              "name": "validated",
              "type": "bool"
            },
            {
              "internalType": "bool",
              "name": "rewarded",
              "type": "bool"
            },
            {
              "internalType": "string",
              "name": "ipfsHash",
              "type": "string"
            }
          ],
          "internalType": "struct TubeDataPool.DataContribution",
          "name": "",
          "type": "tuple"
        }
      ],
      "stateMutability": "view",
      "type": "function"
    },
    {
      "inputs": [
        {
          "internalType": "address",
          "name": "contributor",
          "type": "address"
        }
      ],
      "name": "getContributorHistory",
      "outputs": [
        {
          "internalType": "bytes32[]",
          "name": "",
          "type": "bytes32[]"
        }
      ],
      "stateMutability": "view",
      "type": "function"
    },
    {
      "inputs": [],
      "name": "owner",
      "outputs": [
        {
          "internalType": "address",
          "name": "",
          "type": "address"
        }
      ],
      "stateMutability": "view",
      "type": "function"
    },
    {
      "inputs": [],
      "name": "renounceOwnership",
      "outputs": [],
      "stateMutability": "nonpayable",
      "type": "function"
    },
    {
      "inputs": [
        {
          "internalType": "address",
          "name": "_dataRegistry",
          "type": "address"
        },
        {
          "internalType": "address",
          "name": "_teePool",
          "type": "address"
        }
      ],
      "name": "setVanaIntegration",
      "outputs": [],
      "stateMutability": "nonpayable",
      "type": "function"
    },
    {
      "inputs": [
        {
          "internalType": "string",
          "name": "dataType",
          "type": "string"
        },
        {
          "internalType": "bytes32",
          "name": "dataHash",
          "type": "bytes32"
        },
        {
          "internalType": "string",
          "name": "ipfsHash",
          "type": "string"
        },
        {
          "internalType": "bytes",
          "name": "signature",
          "type": "bytes"
        }
      ],
      "name": "submitDataContribution",
      "outputs": [],
      "stateMutability": "nonpayable",
      "type": "function"
    },
    {
      "inputs": [],
      "name": "teePool",
      "outputs": [
        {
          "internalType": "address",
          "name": "",
          "type": "address"
        }
      ],
      "stateMutability": "view",
      "type": "function"
    },
    {
      "inputs": [
        {
          "internalType": "address",
          "name": "newOwner",
          "type": "address"
        }
      ],
      "name": "transferOwnership",
      "outputs": [],
      "stateMutability": "nonpayable",
      "type": "function"
    },
    {
      "inputs": [],
      "name": "tubeToken",
      "outputs": [
        {
          "internalType": "contract TubeToken",
          "name": "",
          "type": "address"
        }
      ],
      "stateMutability": "view",
      "type": "function"
    },
    {
      "inputs": [
        {
          "internalType": "bytes32",
          "name": "contributionHash",
          "type": "bytes32"
        },
        {
          "internalType": "uint256",
          "name": "qualityScore",
          "type": "uint256"
        }
      ],
      "name": "validateContribution",
      "outputs": [],
      "stateMutability": "nonpayable",
      "type": "function"
    }
  ],
  "bytecode": "0x60a060405234801561001057600080fd5b5060405162001687380380620016878339810160408190526100319161011d565b338061005857604051631e4fbdf760e01b8152600060048201526024015b60405180910390fd5b610061816100cd565b50600180556001600160a01b0381166100bc5760405162461bcd60e51b815260206004820152601560248201527f496e76616c696420746f6b656e20616464726573730000000000000000000000604482015260640161004f565b6001600160a01b031660805261014d565b600080546001600160a01b038381166001600160a01b0319831681178455604051919092169283917f8be0079c531659141344cd1fd0a4f28419497f9722a3daafe3b4186f6b6457e09190a35050565b60006020828403121561012f57600080fd5b81516001600160a01b038116811461014657600080fd5b9392505050565b60805161151762000170600039600081816101d80152610db601526115176000f3fe608060405234801561001057600080fd5b50600436106100f55760003560e01c8063a39c1d6b11610097578063d503d4e411610066578063d503d4e41461022d578063db7ea4cc14610240578063f2fde38b14610253578063f688678d1461026657600080fd5b8063a39c1d6b146101c0578063a7515652146101d3578063b0fa0db9146101fa578063b9a350f51461021a57600080fd5b8063715018a6116100d3578063715018a61461015257806375000d631461015a578063758ba52e1461017a5780638da5cb5b1461019b57600080fd5b806314c8b09a146100fa5780632dd46e501461010f578063636091ee14610122575b600080fd5b61010d610108366004610f3d565b610286565b005b61010d61011d366004610fff565b6104fd565b610135610130366004611032565b610573565b60405161014998979695949392919061109b565b60405180910390f35b61010d6106db565b61016d610168366004611105565b6106ef565b6040516101499190611120565b61018d610188366004611164565b61075b565b604051908152602001610149565b6000546001600160a01b03165b6040516001600160a01b039091168152602001610149565b6002546101a8906001600160a01b031681565b6101a87f000000000000000000000000000000000000000000000000000000000000000081565b61020d610208366004611032565b610794565b60405161014991906111c2565b61018d61022836600461125b565b61096d565b6003546101a8906001600160a01b031681565b61010d61024e366004611285565b61099e565b61010d610261366004611105565b610afc565b61018d610274366004611105565b60066020526000908152604090205481565b61028e610b3a565b60008451116102d85760405162461bcd60e51b8152602060048201526011602482015270496e76616c69642064617461207479706560781b60448201526064015b60405180910390fd5b826103195760405162461bcd60e51b8152602060048201526011602482015270092dcecc2d8d2c840c8c2e8c240d0c2e6d607b1b60448201526064016102cf565b336000818152600660205260408120805491929187918791908561033c836112bd565b9190505560405160200161035394939291906112d6565b60405160208183030381529060405280519060200120905060008251116103b05760405162461bcd60e51b8152602060048201526011602482015270496e76616c6964207369676e617475726560781b60448201526064016102cf565b6040805161010081018252338152602080820188815282840188905242606084015260006080840181905260a0840181905260c0840181905260e084018890528581526004909252929020815181546001600160a01b0319166001600160a01b039091161781559151909190600182019061042b90826113a2565b5060408201516002820155606082015160038201556080820151600482015560a082015160058201805460c085015115156101000261ff00199315159390931661ffff199091161791909117905560e0820151600682019061048d90826113a2565b505033600081815260056020908152604080832080546001810182559084529190922001849055518392507fb5a783765cee72de10fe4f4dc04091eef77d9cb0b6e5ca174fd83d94dce7b44d906104e5908990611462565b60405180910390a3506104f760018055565b50505050565b610505610b64565b600280546001600160a01b038481166001600160a01b03199283168117909355600380549185169190921681179091556040805192835260208301919091527fc7d86357c7c3149eb9fbd7b29e3d9321790b6674295230735000d6053c4e70b0910160405180910390a15050565b600460205260009081526040902080546001820180546001600160a01b03909216929161059f9061131a565b80601f01602080910402602001604051908101604052809291908181526020018280546105cb9061131a565b80156106185780601f106105ed57610100808354040283529160200191610618565b820191906000526020600020905b8154815290600101906020018083116105fb57829003601f168201915b50505050600283015460038401546004850154600586015460068701805496979496939550919360ff80831694610100909304169290916106589061131a565b80601f01602080910402602001604051908101604052809291908181526020018280546106849061131a565b80156106d15780601f106106a6576101008083540402835291602001916106d1565b820191906000526020600020905b8154815290600101906020018083116106b457829003601f168201915b5050505050905088565b6106e3610b64565b6106ed6000610b91565b565b6001600160a01b03811660009081526005602090815260409182902080548351818402810184019094528084526060939283018282801561074f57602002820191906000526020600020905b81548152602001906001019080831161073b575b50505050509050919050565b60008484848460405160200161077494939291906112d6565b604051602081830303815290604052805190602001209050949350505050565b604080516101008101825260008082526060602083018190529282018190528282018190526080820181905260a0820181905260c082015260e08101919091526000828152600460209081526040918290208251610100810190935280546001600160a01b0316835260018101805491928401916108119061131a565b80601f016020809104026020016040519081016040528092919081815260200182805461083d9061131a565b801561088a5780601f1061085f5761010080835404028352916020019161088a565b820191906000526020600020905b81548152906001019060200180831161086d57829003601f168201915b5050509183525050600282015460208201526003820154604082015260048201546060820152600582015460ff8082161515608084015261010090910416151560a082015260068201805460c0909201916108e49061131a565b80601f01602080910402602001604051908101604052809291908181526020018280546109109061131a565b801561095d5780601f106109325761010080835404028352916020019161095d565b820191906000526020600020905b81548152906001019060200180831161094057829003601f168201915b5050505050815250509050919050565b6005602052816000526040600020818154811061098957600080fd5b90600052602060002001600091509150505481565b6109a6610b64565b600082815260046020526040902080546001600160a01b0316610a045760405162461bcd60e51b815260206004820152601660248201527510dbdb9d1c9a589d5d1a5bdb881b9bdd08199bdd5b9960521b60448201526064016102cf565b600581015460ff1615610a4d5760405162461bcd60e51b8152602060048201526011602482015270105b1c9958591e481d985b1a59185d1959607a1b60448201526064016102cf565b600a821115610a965760405162461bcd60e51b8152602060048201526015602482015274496e76616c6964207175616c6974792073636f726560581b60448201526064016102cf565b6004810182905560058101805460ff1916600117905560405183907feb71d2914309b37b9a49fc4a5815c2cf484a3fab5e28b5d5070b05419e2f789e90610ae09085815260200190565b60405180910390a28115610af757610af783610be1565b505050565b610b04610b64565b6001600160a01b038116610b2e57604051631e4fbdf760e01b8152600060048201526024016102cf565b610b3781610b91565b50565b600260015403610b5d57604051633ee5aeb560e01b815260040160405180910390fd5b6002600155565b6000546001600160a01b031633146106ed5760405163118cdaa760e01b81523360048201526024016102cf565b600080546001600160a01b038381166001600160a01b0319831681178455604051919092169283917f8be0079c531659141344cd1fd0a4f28419497f9722a3daafe3b4186f6b6457e09190a35050565b6000818152600460205260409020600581015460ff16610c335760405162461bcd60e51b815260206004820152600d60248201526c139bdd081d985b1a59185d1959609a1b60448201526064016102cf565b6005810154610100900460ff1615610c805760405162461bcd60e51b815260206004820152601060248201526f105b1c9958591e481c995dd85c99195960821b60448201526064016102cf565b60058101805461ff00191661010017905560018101805460009190610ca49061131a565b80601f0160208091040260200160405190810160405280929190818152602001828054610cd09061131a565b8015610d1d5780601f10610cf257610100808354040283529160200191610d1d565b820191906000526020600020905b815481529060010190602001808311610d0057829003601f168201915b5050505060048401546040805180820190915260078152667072656d69756d60c81b602091820152835190840120929350917f8f046a6c858aaacf4a7dc398490d393a288eddbdc047514d5a5c8a7300c2211b019050610d9d57600a610d8482600f611475565b610d8e9190611492565b9050600a811115610d9d5750600a5b8254604051636169afd960e11b81526001600160a01b037f000000000000000000000000000000000000000000000000000000000000000081169263c2d35fb292610df59291909116908890869088906004016114b4565b600060405180830381600087803b158015610e0f57600080fd5b505af1158015610e23573d6000803e3d6000fd5b505084548692506001600160a01b031690507f1f4b51838b3cf7ccc5bca8c7a343bec476e7d4f1d67596500ea71da0166d2e7d610e61846064611475565b610e7390670de0b6b3a7640000611475565b60405190815260200160405180910390a350505050565b634e487b7160e01b600052604160045260246000fd5b600067ffffffffffffffff80841115610ebb57610ebb610e8a565b604051601f8501601f19908116603f01168101908282118183101715610ee357610ee3610e8a565b81604052809350858152868686011115610efc57600080fd5b858560208301376000602087830101525050509392505050565b600082601f830112610f2757600080fd5b610f3683833560208501610ea0565b9392505050565b60008060008060808587031215610f5357600080fd5b843567ffffffffffffffff80821115610f6b57600080fd5b610f7788838901610f16565b9550602087013594506040870135915080821115610f9457600080fd5b610fa088838901610f16565b93506060870135915080821115610fb657600080fd5b508501601f81018713610fc857600080fd5b610fd787823560208401610ea0565b91505092959194509250565b80356001600160a01b0381168114610ffa57600080fd5b919050565b6000806040838503121561101257600080fd5b61101b83610fe3565b915061102960208401610fe3565b90509250929050565b60006020828403121561104457600080fd5b5035919050565b60005b8381101561106657818101518382015260200161104e565b50506000910152565b6000815180845261108781602086016020860161104b565b601f01601f19169290920160200192915050565b6001600160a01b0389168152610100602082018190526000906110c08382018b61106f565b905088604084015287606084015286608084015285151560a084015284151560c084015282810360e08401526110f6818561106f565b9b9a5050505050505050505050565b60006020828403121561111757600080fd5b610f3682610fe3565b6020808252825182820181905260009190848201906040850190845b818110156111585783518352928401929184019160010161113c565b50909695505050505050565b6000806000806080858703121561117a57600080fd5b61118385610fe3565b9350602085013567ffffffffffffffff81111561119f57600080fd5b6111ab87828801610f16565b949794965050505060408301359260600135919050565b602080825282516001600160a01b03168282015282015161010060408301819052600091906111f561012085018361106f565b91506040850151606085015260608501516080850152608085015160a085015260a085015161122860c086018215159052565b5060c085015180151560e08601525060e0850151848303601f190182860152611251838261106f565b9695505050505050565b6000806040838503121561126e57600080fd5b61127783610fe3565b946020939093013593505050565b6000806040838503121561129857600080fd5b50508035926020909101359150565b634e487b7160e01b600052601160045260246000fd5b6000600182016112cf576112cf6112a7565b5060010190565b6bffffffffffffffffffffffff198560601b1681526000845161130081601485016020890161104b565b909101601481019390935250603482015260540192915050565b600181811c9082168061132e57607f821691505b60208210810361134e57634e487b7160e01b600052602260045260246000fd5b50919050565b601f821115610af757600081815260208120601f850160051c8101602086101561137b5750805b601f850160051c820191505b8181101561139a57828155600101611387565b505050505050565b815167ffffffffffffffff8111156113bc576113bc610e8a565b6113d0816113ca845461131a565b84611354565b602080601f83116001811461140557600084156113ed5750858301515b600019600386901b1c1916600185901b17855561139a565b600085815260208120601f198616915b8281101561143457888601518255948401946001909101908401611415565b50858210156114525787850151600019600388901b60f8161c191681555b5050505050600190811b01905550565b602081526000610f36602083018461106f565b808202811582820484141761148c5761148c6112a7565b92915050565b6000826114af57634e487b7160e01b600052601260045260246000fd5b500490565b60018060a01b0385168152836020820152826040820152608060608201526000611251608083018461106f56fea26469706673582212205e95c799d41b0fae5880fd88d00623783b700a49e747e28aa525a86afbe5b58964736f6c63430008140033",
  "linkReferences": {},
  "deployedLinkReferences": {}
}