{
  "_format": "hh-sol-artifact-1",
  "contractName": "Registry",
  "sourceName": "contracts/Registry.sol",
  "abi": [
    {
      "inputs": [],
      "stateMutability": "nonpayable",
      "type": "constructor"
    },
    {
      "inputs": [
        {
          "internalType": "address",
          "name": "owner",
          "type": "address"
        }
      ],
      "name": "OwnableInvalidOwner",
      "type": "error"
    },
    {
      "inputs": [
        {
          "internalType": "address",
          "name": "account",
          "type": "address"
        }
      ],
      "name": "OwnableUnauthorizedAccount",
      "type": "error"
    },
    {
      "inputs": [],
      "name": "ReentrancyGuardReentrantCall",
      "type": "error"
    },
    {
      "anonymous": false,
      "inputs": [
        {
          "indexed": true,
          "internalType": "address",
          "name": "member",
          "type": "address"
        },
        {
          "indexed": false,
          "internalType": "uint256",
          "name": "timestamp",
          "type": "uint256"
        }
      ],
      "name": "MemberRegistered",
      "type": "event"
    },
    {
      "anonymous": false,
      "inputs": [
        {
          "indexed": true,
          "internalType": "address",
          "name": "member",
          "type": "address"
        },
        {
          "indexed": false,
          "internalType": "uint256",
          "name": "timestamp",
          "type": "uint256"
        }
      ],
      "name": "MemberRemoved",
      "type": "event"
    },
    {
      "anonymous": false,
      "inputs": [
        {
          "indexed": true,
          "internalType": "address",
          "name": "previousOwner",
          "type": "address"
        },
        {
          "indexed": true,
          "internalType": "address",
          "name": "newOwner",
          "type": "address"
        }
      ],
      "name": "OwnershipTransferred",
      "type": "event"
    },
    {
      "anonymous": false,
      "inputs": [
        {
          "indexed": false,
          "internalType": "uint256",
          "name": "oldFee",
          "type": "uint256"
        },
        {
          "indexed": false,
          "internalType": "uint256",
          "name": "newFee",
          "type": "uint256"
        }
      ],
      "name": "RegistrationFeeUpdated",
      "type": "event"
    },
    {
      "inputs": [],
      "name": "emergencyPause",
      "outputs": [],
      "stateMutability": "nonpayable",
      "type": "function"
    },
    {
      "inputs": [
        {
          "internalType": "address",
          "name": "member",
          "type": "address"
        }
      ],
      "name": "getRegistrationTimestamp",
      "outputs": [
        {
          "internalType": "uint256",
          "name": "",
          "type": "uint256"
        }
      ],
      "stateMutability": "view",
      "type": "function"
    },
    {
      "inputs": [
        {
          "internalType": "address",
          "name": "member",
          "type": "address"
        }
      ],
      "name": "getReputation",
      "outputs": [
        {
          "internalType": "uint256",
          "name": "",
          "type": "uint256"
        }
      ],
      "stateMutability": "view",
      "type": "function"
    },
    {
      "inputs": [],
      "name": "getTotalMembers",
      "outputs": [
        {
          "internalType": "uint256",
          "name": "",
          "type": "uint256"
        }
      ],
      "stateMutability": "view",
      "type": "function"
    },
    {
      "inputs": [
        {
          "internalType": "address",
          "name": "member",
          "type": "address"
        }
      ],
      "name": "isMember",
      "outputs": [
        {
          "internalType": "bool",
          "name": "",
          "type": "bool"
        }
      ],
      "stateMutability": "view",
      "type": "function"
    },
    {
      "inputs": [
        {
          "internalType": "address",
          "name": "",
          "type": "address"
        }
      ],
      "name": "members",
      "outputs": [
        {
          "internalType": "bool",
          "name": "",
          "type": "bool"
        }
      ],
      "stateMutability": "view",
      "type": "function"
    },
    {
      "inputs": [],
      "name": "owner",
      "outputs": [
        {
          "internalType": "address",
          "name": "",
          "type": "address"
        }
      ],
      "stateMutability": "view",
      "type": "function"
    },
    {
      "inputs": [],
      "name": "register",
      "outputs": [],
      "stateMutability": "nonpayable",
      "type": "function"
    },
    {
      "inputs": [
        {
          "internalType": "address",
          "name": "member",
          "type": "address"
        }
      ],
      "name": "registerMember",
      "outputs": [],
      "stateMutability": "nonpayable",
      "type": "function"
    },
    {
      "inputs": [],
      "name": "registrationFee",
      "outputs": [
        {
          "internalType": "uint256",
          "name": "",
          "type": "uint256"
        }
      ],
      "stateMutability": "view",
      "type": "function"
    },
    {
      "inputs": [
        {
          "internalType": "address",
          "name": "",
          "type": "address"
        }
      ],
      "name": "registrationTimestamp",
      "outputs": [
        {
          "internalType": "uint256",
          "name": "",
          "type": "uint256"
        }
      ],
      "stateMutability": "view",
      "type": "function"
    },
    {
      "inputs": [
        {
          "internalType": "address",
          "name": "member",
          "type": "address"
        }
      ],
      "name": "removeMember",
      "outputs": [],
      "stateMutability": "nonpayable",
      "type": "function"
    },
    {
      "inputs": [],
      "name": "renounceOwnership",
      "outputs": [],
      "stateMutability": "nonpayable",
      "type": "function"
    },
    {
      "inputs": [
        {
          "internalType": "address",
          "name": "",
          "type": "address"
        }
      ],
      "name": "reputation",
      "outputs": [
        {
          "internalType": "uint256",
          "name": "",
          "type": "uint256"
        }
      ],
      "stateMutability": "view",
      "type": "function"
    },
    {
      "inputs": [],
      "name": "totalMembers",
      "outputs": [
        {
          "internalType": "uint256",
          "name": "",
          "type": "uint256"
        }
      ],
      "stateMutability": "view",
      "type": "function"
    },
    {
      "inputs": [
        {
          "internalType": "address",
          "name": "newOwner",
          "type": "address"
        }
      ],
      "name": "transferOwnership",
      "outputs": [],
      "stateMutability": "nonpayable",
      "type": "function"
    },
    {
      "inputs": [
        {
          "internalType": "uint256",
          "name": "newFee",
          "type": "uint256"
        }
      ],
      "name": "updateRegistrationFee",
      "outputs": [],
      "stateMutability": "nonpayable",
      "type": "function"
    },
    {
      "inputs": [
        {
          "internalType": "address",
          "name": "member",
          "type": "address"
        },
        {
          "internalType": "uint256",
          "name": "newReputation",
          "type": "uint256"
        }
      ],
      "name": "updateReputation",
      "outputs": [],
      "stateMutability": "nonpayable",
      "type": "function"
    },
    {
      "inputs": [],
      "name": "withdrawETH",
      "outputs": [],
      "stateMutability": "nonpayable",
      "type": "function"
    },
    {
      "stateMutability": "payable",
      "type": "receive"
    }
  ],
  "bytecode": "0x6080604052600060055534801561001557600080fd5b50338061003c57604051631e4fbdf760e01b81526000600482015260240160405180910390fd5b61004581610058565b5060018055610053336100a8565b610163565b600080546001600160a01b038381166001600160a01b0319831681178455604051919092169283917f8be0079c531659141344cd1fd0a4f28419497f9722a3daafe3b4186f6b6457e09190a35050565b6001600160a01b0381166000908152600260209081526040808320805460ff1916600117905560038252808320429055600490915281206064905560068054916100f18361013c565b9190505550806001600160a01b03167f67e0244e28040fec15240cd4b6c04c776a2a0278caef23b59e8ada1df31f76894260405161013191815260200190565b60405180910390a250565b60006001820161015c57634e487b7160e01b600052601160045260246000fd5b5060010190565b610aeb806101726000396000f3fe6080604052600436106101185760003560e01c80639c89a0e2116100a0578063e086e5ec11610064578063e086e5ec14610314578063f2fde38b14610329578063f569304414610349578063f5c91a0814610369578063fcb4888e1461038957600080fd5b80639c89a0e214610241578063a230c52414610261578063a6f911201461029a578063af582c6b146102c7578063b9f79451146102e757600080fd5b806351858e27116100e757806351858e27146101c4578063715018a6146101d957806376e92559146101ee5780638da5cb5b146102045780638f1803051461022c57600080fd5b806308ae4b0c146101245780630b1ca49a1461016957806314c44e091461018b5780631aa3a008146101af57600080fd5b3661011f57005b600080fd5b34801561013057600080fd5b5061015461013f3660046109c9565b60026020526000908152604090205460ff1681565b60405190151581526020015b60405180910390f35b34801561017557600080fd5b506101896101843660046109c9565b6103a9565b005b34801561019757600080fd5b506101a160055481565b604051908152602001610160565b3480156101bb57600080fd5b506101896104d7565b3480156101d057600080fd5b5061018961055f565b3480156101e557600080fd5b506101896105c1565b3480156101fa57600080fd5b506101a160065481565b34801561021057600080fd5b506000546040516001600160a01b039091168152602001610160565b34801561023857600080fd5b506006546101a1565b34801561024d57600080fd5b506101a161025c3660046109c9565b6105d3565b34801561026d57600080fd5b5061015461027c3660046109c9565b6001600160a01b031660009081526002602052604090205460ff1690565b3480156102a657600080fd5b506101a16102b53660046109c9565b60036020526000908152604090205481565b3480156102d357600080fd5b506101896102e23660046109eb565b610627565b3480156102f357600080fd5b506101a16103023660046109c9565b60046020526000908152604090205481565b34801561032057600080fd5b50610189610674565b34801561033557600080fd5b506101896103443660046109c9565b610707565b34801561035557600080fd5b506101a16103643660046109c9565b610745565b34801561037557600080fd5b50610189610384366004610a04565b610799565b34801561039557600080fd5b506101896103a43660046109c9565b6107f5565b6103b161087d565b6001600160a01b03811660009081526002602052604090205460ff166103f25760405162461bcd60e51b81526004016103e990610a2e565b60405180910390fd5b6000546001600160a01b03166001600160a01b0316816001600160a01b03160361045e5760405162461bcd60e51b815260206004820152601d60248201527f52656769737472793a2043616e6e6f742072656d6f7665206f776e657200000060448201526064016103e9565b6001600160a01b0381166000908152600260205260408120805460ff19169055600680549161048c83610a85565b9190505550806001600160a01b03167f3ac963493df564de734d98633f1145d21512e282ba4c02d3c1011119bf7f2862426040516104cc91815260200190565b60405180910390a250565b3360009081526002602052604090205460ff16156105435760405162461bcd60e51b8152602060048201526024808201527f52656769737472793a2043616c6c657220697320616c72656164792061206d6560448201526336b132b960e11b60648201526084016103e9565b61054b6108aa565b610554336108d4565b61055d60018055565b565b61056761087d565b60405162461bcd60e51b815260206004820152602960248201527f52656769737472793a20456d657267656e6379207061757365206e6f7420696d6044820152681c1b195b595b9d195960ba1b60648201526084016103e9565b6105c961087d565b61055d600061095d565b6001600160a01b03811660009081526002602052604081205460ff1661060b5760405162461bcd60e51b81526004016103e990610a2e565b506001600160a01b031660009081526004602052604090205490565b61062f61087d565b600580549082905560408051828152602081018490527f50b218c5a101ad05d53ab0a964d01da639ee79525ae4b7802ed714249740a8d5910160405180910390a15050565b61067c61087d565b47806106ca5760405162461bcd60e51b815260206004820152601c60248201527f52656769737472793a204e6f2045544820746f2077697468647261770000000060448201526064016103e9565b600080546040516001600160a01b039091169183156108fc02918491818181858888f19350505050158015610703573d6000803e3d6000fd5b5050565b61070f61087d565b6001600160a01b03811661073957604051631e4fbdf760e01b8152600060048201526024016103e9565b6107428161095d565b50565b6001600160a01b03811660009081526002602052604081205460ff1661077d5760405162461bcd60e51b81526004016103e990610a2e565b506001600160a01b031660009081526003602052604090205490565b6107a161087d565b6001600160a01b03821660009081526002602052604090205460ff166107d95760405162461bcd60e51b81526004016103e990610a2e565b6001600160a01b03909116600090815260046020526040902055565b6107fd61087d565b6001600160a01b03811660009081526002602052604090205460ff16156108745760405162461bcd60e51b815260206004820152602560248201527f52656769737472793a204164647265737320697320616c72656164792061206d60448201526432b6b132b960d91b60648201526084016103e9565b610742816108d4565b6000546001600160a01b0316331461055d5760405163118cdaa760e01b81523360048201526024016103e9565b6002600154036108cd57604051633ee5aeb560e01b815260040160405180910390fd5b6002600155565b6001600160a01b0381166000908152600260209081526040808320805460ff19166001179055600382528083204290556004909152812060649055600680549161091d83610a9c565b9190505550806001600160a01b03167f67e0244e28040fec15240cd4b6c04c776a2a0278caef23b59e8ada1df31f7689426040516104cc91815260200190565b600080546001600160a01b038381166001600160a01b0319831681178455604051919092169283917f8be0079c531659141344cd1fd0a4f28419497f9722a3daafe3b4186f6b6457e09190a35050565b80356001600160a01b03811681146109c457600080fd5b919050565b6000602082840312156109db57600080fd5b6109e4826109ad565b9392505050565b6000602082840312156109fd57600080fd5b5035919050565b60008060408385031215610a1757600080fd5b610a20836109ad565b946020939093013593505050565b60208082526021908201527f52656769737472793a2041646472657373206973206e6f742061206d656d62656040820152603960f91b606082015260800190565b634e487b7160e01b600052601160045260246000fd5b600081610a9457610a94610a6f565b506000190190565b600060018201610aae57610aae610a6f565b506001019056fea26469706673582212205d467d0627d1bce659bed34cb80d12dc13882826607f417a8aaaf4c122016e0464736f6c63430008140033",
  "linkReferences": {},
  "deployedLinkReferences": {}
}