{
  "_format": "hh-sol-artifact-1",
  "contractName": "TubeGovernance",
  "sourceName": "contracts/TubeGovernance.sol",
  "abi": [
    {
      "inputs": [
        {
          "internalType": "address",
          "name": "_tubeToken",
          "type": "address"
        }
      ],
      "stateMutability": "nonpayable",
      "type": "constructor"
    },
    {
      "inputs": [
        {
          "internalType": "address",
          "name": "owner",
          "type": "address"
        }
      ],
      "name": "OwnableInvalidOwner",
      "type": "error"
    },
    {
      "inputs": [
        {
          "internalType": "address",
          "name": "account",
          "type": "address"
        }
      ],
      "name": "OwnableUnauthorizedAccount",
      "type": "error"
    },
    {
      "inputs": [],
      "name": "ReentrancyGuardReentrantCall",
      "type": "error"
    },
    {
      "anonymous": false,
      "inputs": [
        {
          "indexed": true,
          "internalType": "address",
          "name": "previousOwner",
          "type": "address"
        },
        {
          "indexed": true,
          "internalType": "address",
          "name": "newOwner",
          "type": "address"
        }
      ],
      "name": "OwnershipTransferred",
      "type": "event"
    },
    {
      "anonymous": false,
      "inputs": [
        {
          "indexed": true,
          "internalType": "uint256",
          "name": "proposalId",
          "type": "uint256"
        }
      ],
      "name": "ProposalCancelled",
      "type": "event"
    },
    {
      "anonymous": false,
      "inputs": [
        {
          "indexed": true,
          "internalType": "uint256",
          "name": "proposalId",
          "type": "uint256"
        },
        {
          "indexed": true,
          "internalType": "address",
          "name": "proposer",
          "type": "address"
        },
        {
          "indexed": false,
          "internalType": "enum TubeGovernance.ProposalType",
          "name": "proposalType",
          "type": "uint8"
        },
        {
          "indexed": false,
          "internalType": "string",
          "name": "title",
          "type": "string"
        },
        {
          "indexed": false,
          "internalType": "uint256",
          "name": "startTime",
          "type": "uint256"
        },
        {
          "indexed": false,
          "internalType": "uint256",
          "name": "endTime",
          "type": "uint256"
        }
      ],
      "name": "ProposalCreated",
      "type": "event"
    },
    {
      "anonymous": false,
      "inputs": [
        {
          "indexed": true,
          "internalType": "uint256",
          "name": "proposalId",
          "type": "uint256"
        }
      ],
      "name": "ProposalExecuted",
      "type": "event"
    },
    {
      "anonymous": false,
      "inputs": [
        {
          "indexed": true,
          "internalType": "address",
          "name": "voter",
          "type": "address"
        },
        {
          "indexed": true,
          "internalType": "uint256",
          "name": "proposalId",
          "type": "uint256"
        },
        {
          "indexed": false,
          "internalType": "uint8",
          "name": "support",
          "type": "uint8"
        },
        {
          "indexed": false,
          "internalType": "uint256",
          "name": "weight",
          "type": "uint256"
        }
      ],
      "name": "VoteCast",
      "type": "event"
    },
    {
      "inputs": [],
      "name": "PROPOSAL_THRESHOLD",
      "outputs": [
        {
          "internalType": "uint256",
          "name": "",
          "type": "uint256"
        }
      ],
      "stateMutability": "view",
      "type": "function"
    },
    {
      "inputs": [],
      "name": "QUORUM_PERCENTAGE",
      "outputs": [
        {
          "internalType": "uint256",
          "name": "",
          "type": "uint256"
        }
      ],
      "stateMutability": "view",
      "type": "function"
    },
    {
      "inputs": [],
      "name": "VOTING_DELAY",
      "outputs": [
        {
          "internalType": "uint256",
          "name": "",
          "type": "uint256"
        }
      ],
      "stateMutability": "view",
      "type": "function"
    },
    {
      "inputs": [],
      "name": "VOTING_PERIOD",
      "outputs": [
        {
          "internalType": "uint256",
          "name": "",
          "type": "uint256"
        }
      ],
      "stateMutability": "view",
      "type": "function"
    },
    {
      "inputs": [
        {
          "internalType": "uint256",
          "name": "proposalId",
          "type": "uint256"
        }
      ],
      "name": "cancel",
      "outputs": [],
      "stateMutability": "nonpayable",
      "type": "function"
    },
    {
      "inputs": [
        {
          "internalType": "uint256",
          "name": "proposalId",
          "type": "uint256"
        },
        {
          "internalType": "uint8",
          "name": "support",
          "type": "uint8"
        }
      ],
      "name": "castVote",
      "outputs": [],
      "stateMutability": "nonpayable",
      "type": "function"
    },
    {
      "inputs": [
        {
          "internalType": "uint256",
          "name": "proposalId",
          "type": "uint256"
        }
      ],
      "name": "execute",
      "outputs": [],
      "stateMutability": "nonpayable",
      "type": "function"
    },
    {
      "inputs": [
        {
          "internalType": "uint256",
          "name": "proposalId",
          "type": "uint256"
        }
      ],
      "name": "getProposal",
      "outputs": [
        {
          "components": [
            {
              "internalType": "uint256",
              "name": "id",
              "type": "uint256"
            },
            {
              "internalType": "address",
              "name": "proposer",
              "type": "address"
            },
            {
              "internalType": "enum TubeGovernance.ProposalType",
              "name": "proposalType",
              "type": "uint8"
            },
            {
              "internalType": "string",
              "name": "title",
              "type": "string"
            },
            {
              "internalType": "string",
              "name": "description",
              "type": "string"
            },
            {
              "internalType": "string",
              "name": "ipfsHash",
              "type": "string"
            },
            {
              "internalType": "uint256",
              "name": "startTime",
              "type": "uint256"
            },
            {
              "internalType": "uint256",
              "name": "endTime",
              "type": "uint256"
            },
            {
              "internalType": "uint256",
              "name": "forVotes",
              "type": "uint256"
            },
            {
              "internalType": "uint256",
              "name": "againstVotes",
              "type": "uint256"
            },
            {
              "internalType": "uint256",
              "name": "abstainVotes",
              "type": "uint256"
            },
            {
              "internalType": "enum TubeGovernance.ProposalStatus",
              "name": "status",
              "type": "uint8"
            },
            {
              "internalType": "bool",
              "name": "executed",
              "type": "bool"
            },
            {
              "internalType": "bytes",
              "name": "executionData",
              "type": "bytes"
            }
          ],
          "internalType": "struct TubeGovernance.Proposal",
          "name": "",
          "type": "tuple"
        }
      ],
      "stateMutability": "view",
      "type": "function"
    },
    {
      "inputs": [
        {
          "internalType": "uint256",
          "name": "proposalId",
          "type": "uint256"
        },
        {
          "internalType": "address",
          "name": "voter",
          "type": "address"
        }
      ],
      "name": "getVote",
      "outputs": [
        {
          "components": [
            {
              "internalType": "bool",
              "name": "hasVoted",
              "type": "bool"
            },
            {
              "internalType": "uint8",
              "name": "support",
              "type": "uint8"
            },
            {
              "internalType": "uint256",
              "name": "weight",
              "type": "uint256"
            }
          ],
          "internalType": "struct TubeGovernance.Vote",
          "name": "",
          "type": "tuple"
        }
      ],
      "stateMutability": "view",
      "type": "function"
    },
    {
      "inputs": [
        {
          "internalType": "uint256",
          "name": "proposalId",
          "type": "uint256"
        }
      ],
      "name": "hasReachedQuorum",
      "outputs": [
        {
          "internalType": "bool",
          "name": "",
          "type": "bool"
        }
      ],
      "stateMutability": "view",
      "type": "function"
    },
    {
      "inputs": [
        {
          "internalType": "address",
          "name": "",
          "type": "address"
        }
      ],
      "name": "latestProposalIds",
      "outputs": [
        {
          "internalType": "uint256",
          "name": "",
          "type": "uint256"
        }
      ],
      "stateMutability": "view",
      "type": "function"
    },
    {
      "inputs": [],
      "name": "owner",
      "outputs": [
        {
          "internalType": "address",
          "name": "",
          "type": "address"
        }
      ],
      "stateMutability": "view",
      "type": "function"
    },
    {
      "inputs": [],
      "name": "proposalCounter",
      "outputs": [
        {
          "internalType": "uint256",
          "name": "",
          "type": "uint256"
        }
      ],
      "stateMutability": "view",
      "type": "function"
    },
    {
      "inputs": [
        {
          "internalType": "uint256",
          "name": "",
          "type": "uint256"
        }
      ],
      "name": "proposals",
      "outputs": [
        {
          "internalType": "uint256",
          "name": "id",
          "type": "uint256"
        },
        {
          "internalType": "address",
          "name": "proposer",
          "type": "address"
        },
        {
          "internalType": "enum TubeGovernance.ProposalType",
          "name": "proposalType",
          "type": "uint8"
        },
        {
          "internalType": "string",
          "name": "title",
          "type": "string"
        },
        {
          "internalType": "string",
          "name": "description",
          "type": "string"
        },
        {
          "internalType": "string",
          "name": "ipfsHash",
          "type": "string"
        },
        {
          "internalType": "uint256",
          "name": "startTime",
          "type": "uint256"
        },
        {
          "internalType": "uint256",
          "name": "endTime",
          "type": "uint256"
        },
        {
          "internalType": "uint256",
          "name": "forVotes",
          "type": "uint256"
        },
        {
          "internalType": "uint256",
          "name": "againstVotes",
          "type": "uint256"
        },
        {
          "internalType": "uint256",
          "name": "abstainVotes",
          "type": "uint256"
        },
        {
          "internalType": "enum TubeGovernance.ProposalStatus",
          "name": "status",
          "type": "uint8"
        },
        {
          "internalType": "bool",
          "name": "executed",
          "type": "bool"
        },
        {
          "internalType": "bytes",
          "name": "executionData",
          "type": "bytes"
        }
      ],
      "stateMutability": "view",
      "type": "function"
    },
    {
      "inputs": [
        {
          "internalType": "enum TubeGovernance.ProposalType",
          "name": "proposalType",
          "type": "uint8"
        },
        {
          "internalType": "string",
          "name": "title",
          "type": "string"
        },
        {
          "internalType": "string",
          "name": "description",
          "type": "string"
        },
        {
          "internalType": "string",
          "name": "ipfsHash",
          "type": "string"
        },
        {
          "internalType": "bytes",
          "name": "executionData",
          "type": "bytes"
        }
      ],
      "name": "propose",
      "outputs": [
        {
          "internalType": "uint256",
          "name": "",
          "type": "uint256"
        }
      ],
      "stateMutability": "nonpayable",
      "type": "function"
    },
    {
      "inputs": [],
      "name": "renounceOwnership",
      "outputs": [],
      "stateMutability": "nonpayable",
      "type": "function"
    },
    {
      "inputs": [
        {
          "internalType": "address",
          "name": "newOwner",
          "type": "address"
        }
      ],
      "name": "transferOwnership",
      "outputs": [],
      "stateMutability": "nonpayable",
      "type": "function"
    },
    {
      "inputs": [],
      "name": "tubeToken",
      "outputs": [
        {
          "internalType": "contract TubeToken",
          "name": "",
          "type": "address"
        }
      ],
      "stateMutability": "view",
      "type": "function"
    },
    {
      "inputs": [
        {
          "internalType": "uint256",
          "name": "",
          "type": "uint256"
        },
        {
          "internalType": "address",
          "name": "",
          "type": "address"
        }
      ],
      "name": "votes",
      "outputs": [
        {
          "internalType": "bool",
          "name": "hasVoted",
          "type": "bool"
        },
        {
          "internalType": "uint8",
          "name": "support",
          "type": "uint8"
        },
        {
          "internalType": "uint256",
          "name": "weight",
          "type": "uint256"
        }
      ],
      "stateMutability": "view",
      "type": "function"
    }
  ],
  "bytecode": "0x60a06040523480156200001157600080fd5b506040516200265b3803806200265b833981016040819052620000349162000126565b33806200005c57604051631e4fbdf760e01b8152600060048201526024015b60405180910390fd5b6200006781620000d6565b50600180556001600160a01b038116620000c45760405162461bcd60e51b815260206004820152601560248201527f496e76616c696420746f6b656e20616464726573730000000000000000000000604482015260640162000053565b6001600160a01b031660805262000158565b600080546001600160a01b038381166001600160a01b0319831681178455604051919092169283917f8be0079c531659141344cd1fd0a4f28419497f9722a3daafe3b4186f6b6457e09190a35050565b6000602082840312156200013957600080fd5b81516001600160a01b03811681146200015157600080fd5b9392505050565b6080516124bd6200019e60003960008181610234015281816107690152818161084201528181610cc901528181610ed7015281816113f30152611bf301526124bd6000f3fe608060405234801561001057600080fd5b50600436106101215760003560e01c8063a6c26603116100ad578063d23254b411610071578063d23254b4146102ba578063d6159fe514610318578063ee8a7c1514610322578063f2fde38b1461032a578063fe0d94c11461033d57600080fd5b8063a6c266031461021e578063a75156521461022f578063b1610d7e14610256578063bc3f931f14610260578063c7f758a81461029a57600080fd5b806354e08004116100f457806354e08004146101a857806356781388146101bb57806359abab05146101ce578063715018a6146101f15780638da5cb5b146101f957600080fd5b8063013cf08b146101265780630c0512e91461015c57806317977c611461017357806340e58ee514610193575b600080fd5b610139610134366004611dcc565b610350565b6040516101539e9d9c9b9a99989796959493929190611e65565b60405180910390f35b61016560025481565b604051908152602001610153565b610165610181366004611f41565b60056020526000908152604090205481565b6101a66101a1366004611dcc565b6105f4565b005b6101656101b6366004612006565b610747565b6101a66101c93660046120ca565b610cb1565b6101e16101dc366004611dcc565b61109f565b6040519015158152602001610153565b6101a6611493565b6000546001600160a01b03165b6040516001600160a01b039091168152602001610153565b61016569021e19e0c9bab240000081565b6102067f000000000000000000000000000000000000000000000000000000000000000081565b6101656203f48081565b61027361026e366004612100565b6114a7565b6040805182511515815260208084015160ff16908201529181015190820152606001610153565b6102ad6102a8366004611dcc565b611514565b604051610153919061212c565b6102f96102c8366004612100565b60046020908152600092835260408084209091529082529020805460019091015460ff808316926101009004169083565b60408051931515845260ff909216602084015290820152606001610153565b6101656201518081565b610165600481565b6101a6610338366004611f41565b611852565b6101a661034b366004611dcc565b611890565b60036020526000908152604090208054600182015460028301805492936001600160a01b03831693600160a01b90930460ff16929091906103909061224f565b80601f01602080910402602001604051908101604052809291908181526020018280546103bc9061224f565b80156104095780601f106103de57610100808354040283529160200191610409565b820191906000526020600020905b8154815290600101906020018083116103ec57829003601f168201915b50505050509080600301805461041e9061224f565b80601f016020809104026020016040519081016040528092919081815260200182805461044a9061224f565b80156104975780601f1061046c57610100808354040283529160200191610497565b820191906000526020600020905b81548152906001019060200180831161047a57829003601f168201915b5050505050908060040180546104ac9061224f565b80601f01602080910402602001604051908101604052809291908181526020018280546104d89061224f565b80156105255780601f106104fa57610100808354040283529160200191610525565b820191906000526020600020905b81548152906001019060200180831161050857829003601f168201915b5050505060058301546006840154600785015460088601546009870154600a880154600b890180549899969895975093959294919360ff8083169461010090930416926105719061224f565b80601f016020809104026020016040519081016040528092919081815260200182805461059d9061224f565b80156105ea5780601f106105bf576101008083540402835291602001916105ea565b820191906000526020600020905b8154815290600101906020018083116105cd57829003601f168201915b505050505090508e565b6000818152600360205260408120805490910361062c5760405162461bcd60e51b815260040161062390612289565b60405180910390fd5b60018101546001600160a01b031633148061065157506000546001600160a01b031633145b61068e5760405162461bcd60e51b815260206004820152600e60248201526d139bdd08185d5d1a1bdc9a5e995960921b6044820152606401610623565b6000600a82015460ff1660058111156106a9576106a9611de5565b14806106cd57506001600a82015460ff1660058111156106cb576106cb611de5565b145b6107095760405162461bcd60e51b815260206004820152600d60248201526c10d85b9b9bdd0818d85b98d95b609a1b6044820152606401610623565b600a8101805460ff1916600517905560405182907f416e669c63d9a3a5e36ee7cc7e2104b8db28ccd286aa18966e98fa230c73b08c90600090a25050565b6040516370a0823160e01b815233600482015260009081906001600160a01b037f000000000000000000000000000000000000000000000000000000000000000016906370a0823190602401602060405180830381865afa1580156107b0573d6000803e3d6000fd5b505050506040513d601f19601f820116820180604052508101906107d491906122b5565b116108195760405162461bcd60e51b81526020600482015260156024820152744d75737420686f6c64205455424520746f6b656e7360581b6044820152606401610623565b610821611b2b565b6040516370a0823160e01b815233600482015269021e19e0c9bab2400000907f00000000000000000000000000000000000000000000000000000000000000006001600160a01b0316906370a0823190602401602060405180830381865afa158015610891573d6000803e3d6000fd5b505050506040513d601f19601f820116820180604052508101906108b591906122b5565b10156109035760405162461bcd60e51b815260206004820152601860248201527f42656c6f772070726f706f73616c207468726573686f6c6400000000000000006044820152606401610623565b60008551116109455760405162461bcd60e51b815260206004820152600e60248201526d151a5d1b19481c995c5d5a5c995960921b6044820152606401610623565b600084511161098d5760405162461bcd60e51b815260206004820152601460248201527311195cd8dc9a5c1d1a5bdb881c995c5d5a5c995960621b6044820152606401610623565b3360009081526005602052604090205415610a465733600090815260056020908152604080832054835260039091528120600a015460ff16908160058111156109d8576109d8611de5565b141580156109f8575060018160058111156109f5576109f5611de5565b14155b610a445760405162461bcd60e51b815260206004820152601b60248201527f416c726561647920686173206163746976652070726f706f73616c00000000006044820152606401610623565b505b6000600260008154610a57906122e4565b918290555090506000610a6d62015180426122fd565b90506000610a7e6203f480836122fd565b604080516101c08101825285815233602082015291925081018a6003811115610aa957610aa9611de5565b815260200189815260200188815260200187815260200183815260200182815260200160008152602001600081526020016000815260200160006005811115610af457610af4611de5565b815260006020808301829052604092830189905286825260038082529183902084518155908401516001820180546001600160a01b031981166001600160a01b039093169283178255948601519294929390926001600160a81b03191690911790600160a01b908490811115610b6c57610b6c611de5565b021790555060608201516002820190610b85908261235b565b5060808201516003820190610b9a908261235b565b5060a08201516004820190610baf908261235b565b5060c0820151816005015560e0820151816006015561010082015181600701556101208201518160080155610140820151816009015561016082015181600a0160006101000a81548160ff02191690836005811115610c1057610c10611de5565b0217905550610180820151600a820180549115156101000261ff00199092169190911790556101a0820151600b820190610c4a908261235b565b505033600081815260056020526040908190208690555190915084907f47a2aa5c08b3748005a89b7e0e9fa72c7117a4dc828ffc76e92b275d069317d490610c99908d908d908890889061241b565b60405180910390a35050600180559695505050505050565b6040516370a0823160e01b81523360048201526000907f00000000000000000000000000000000000000000000000000000000000000006001600160a01b0316906370a0823190602401602060405180830381865afa158015610d18573d6000803e3d6000fd5b505050506040513d601f19601f82011682018060405250810190610d3c91906122b5565b11610d815760405162461bcd60e51b81526020600482015260156024820152744d75737420686f6c64205455424520746f6b656e7360581b6044820152606401610623565b610d89611b2b565b60028160ff161115610dd15760405162461bcd60e51b8152602060048201526011602482015270496e76616c696420766f7465207479706560781b6044820152606401610623565b60008281526003602052604081208054909103610e005760405162461bcd60e51b815260040161062390612289565b610e0983611b55565b6001600a82015460ff166005811115610e2457610e24611de5565b14610e655760405162461bcd60e51b8152602060048201526011602482015270566f74696e67206e6f742061637469766560781b6044820152606401610623565b600083815260046020908152604080832033845290915290205460ff1615610ebf5760405162461bcd60e51b815260206004820152600d60248201526c105b1c9958591e481d9bdd1959609a1b6044820152606401610623565b6040516370a0823160e01b81523360048201526000907f00000000000000000000000000000000000000000000000000000000000000006001600160a01b0316906370a0823190602401602060405180830381865afa158015610f26573d6000803e3d6000fd5b505050506040513d601f19601f82011682018060405250810190610f4a91906122b5565b905060008111610f8e5760405162461bcd60e51b815260206004820152600f60248201526e2737903b37ba34b733903837bbb2b960891b6044820152606401610623565b60408051606081018252600180825260ff868116602080850182815285870188815260008c81526004845288812033825290935296822095518654915161ffff1990921690151561ff0019161761010091909416029290921784559351929091019190915503611017578082600801600082825461100c91906122fd565b909155506110509050565b8260ff16600103611036578082600701600082825461100c91906122fd565b8082600901600082825461104a91906122fd565b90915550505b6040805160ff8516815260208101839052859133917f2c9deb38f462962eadbd85a9d3a4120503ee091f1582eaaa10aa8c6797651d29910160405180910390a3505061109b60018055565b5050565b600081815260036020818152604080842081516101c0810183528154815260018201546001600160a01b03811694820194909452859490939192840191600160a01b900460ff16908111156110f6576110f6611de5565b600381111561110757611107611de5565b815260200160028201805461111b9061224f565b80601f01602080910402602001604051908101604052809291908181526020018280546111479061224f565b80156111945780601f1061116957610100808354040283529160200191611194565b820191906000526020600020905b81548152906001019060200180831161117757829003601f168201915b505050505081526020016003820180546111ad9061224f565b80601f01602080910402602001604051908101604052809291908181526020018280546111d99061224f565b80156112265780601f106111fb57610100808354040283529160200191611226565b820191906000526020600020905b81548152906001019060200180831161120957829003601f168201915b5050505050815260200160048201805461123f9061224f565b80601f016020809104026020016040519081016040528092919081815260200182805461126b9061224f565b80156112b85780601f1061128d576101008083540402835291602001916112b8565b820191906000526020600020905b81548152906001019060200180831161129b57829003601f168201915b50505091835250506005828101546020830152600683015460408301526007830154606083015260088301546080830152600983015460a0830152600a83015460c09092019160ff169081111561131157611311611de5565b600581111561132257611322611de5565b8152600a820154610100900460ff1615156020820152600b8201805460409092019161134d9061224f565b80601f01602080910402602001604051908101604052809291908181526020018280546113799061224f565b80156113c65780601f1061139b576101008083540402835291602001916113c6565b820191906000526020600020905b8154815290600101906020018083116113a957829003601f168201915b505050505081525050905060008161012001518261010001516113e991906122fd565b90506000606460047f00000000000000000000000000000000000000000000000000000000000000006001600160a01b03166318160ddd6040518163ffffffff1660e01b8152600401602060405180830381865afa15801561144f573d6000803e3d6000fd5b505050506040513d601f19601f8201168201806040525081019061147391906122b5565b61147d919061244e565b6114879190612465565b90911015949350505050565b61149b611ccf565b6114a56000611cfc565b565b604080516060808201835260008083526020808401829052928401819052858152600483528381206001600160a01b0386168252835283902083519182018452805460ff808216151584526101009091041692820192909252600190910154918101919091525b92915050565b61151c611d4c565b60008281526003602081815260409283902083516101c0810185528154815260018201546001600160a01b0381169382019390935293909290840191600160a01b900460ff169081111561157257611572611de5565b600381111561158357611583611de5565b81526020016002820180546115979061224f565b80601f01602080910402602001604051908101604052809291908181526020018280546115c39061224f565b80156116105780601f106115e557610100808354040283529160200191611610565b820191906000526020600020905b8154815290600101906020018083116115f357829003601f168201915b505050505081526020016003820180546116299061224f565b80601f01602080910402602001604051908101604052809291908181526020018280546116559061224f565b80156116a25780601f10611677576101008083540402835291602001916116a2565b820191906000526020600020905b81548152906001019060200180831161168557829003601f168201915b505050505081526020016004820180546116bb9061224f565b80601f01602080910402602001604051908101604052809291908181526020018280546116e79061224f565b80156117345780601f1061170957610100808354040283529160200191611734565b820191906000526020600020905b81548152906001019060200180831161171757829003601f168201915b50505091835250506005828101546020830152600683015460408301526007830154606083015260088301546080830152600983015460a0830152600a83015460c09092019160ff169081111561178d5761178d611de5565b600581111561179e5761179e611de5565b8152600a820154610100900460ff1615156020820152600b820180546040909201916117c99061224f565b80601f01602080910402602001604051908101604052809291908181526020018280546117f59061224f565b80156118425780601f1061181757610100808354040283529160200191611842565b820191906000526020600020905b81548152906001019060200180831161182557829003601f168201915b5050505050815250509050919050565b61185a611ccf565b6001600160a01b03811661188457604051631e4fbdf760e01b815260006004820152602401610623565b61188d81611cfc565b50565b611898611b2b565b600081815260036020526040812080549091036118c75760405162461bcd60e51b815260040161062390612289565b6118d082611b55565b6002600a82015460ff1660058111156118eb576118eb611de5565b1461192e5760405162461bcd60e51b8152602060048201526013602482015272141c9bdc1bdcd85b081b9bdd081c185cdcd959606a1b6044820152606401610623565b600a810154610100900460ff161561197b5760405162461bcd60e51b815260206004820152601060248201526f105b1c9958591e48195e1958dd5d195960821b6044820152606401610623565b600a8101805461ffff19166101041790556001810154600090600160a01b900460ff1660038111156119af576119af611de5565b03611a4c57611a4781600b0180546119c69061224f565b80601f01602080910402602001604051908101604052809291908181526020018280546119f29061224f565b8015611a3f5780601f10611a1457610100808354040283529160200191611a3f565b820191906000526020600020905b815481529060010190602001808311611a2257829003601f168201915b505050505050565b611af6565b600180820154600160a01b900460ff166003811115611a6d57611a6d611de5565b03611a8457611a4781600b0180546119c69061224f565b60026001820154600160a01b900460ff166003811115611aa657611aa6611de5565b03611abd57611a4781600b0180546119c69061224f565b60036001820154600160a01b900460ff166003811115611adf57611adf611de5565b03611af657611af681600b0180546119c69061224f565b60405182907f712ae1383f79ac853f8d882153778e0260ef8f03b504e2866e0593e04d2b291f90600090a25061188d60018055565b600260015403611b4e57604051633ee5aeb560e01b815260040160405180910390fd5b6002600155565b600081815260036020526040812090600a82015460ff166005811115611b7d57611b7d611de5565b148015611b8e575080600501544210155b15611ba357600a8101805460ff191660011790555b6001600a82015460ff166005811115611bbe57611bbe611de5565b148015611bce5750806006015442115b1561109b57600081600801548260070154611be991906122fd565b90506000606460047f00000000000000000000000000000000000000000000000000000000000000006001600160a01b03166318160ddd6040518163ffffffff1660e01b8152600401602060405180830381865afa158015611c4f573d6000803e3d6000fd5b505050506040513d601f19601f82011682018060405250810190611c7391906122b5565b611c7d919061244e565b611c879190612465565b9050808210158015611ca0575082600801548360070154115b15611cb957600a8301805460ff19166002179055611cc9565b600a8301805460ff191660031790555b50505050565b6000546001600160a01b031633146114a55760405163118cdaa760e01b8152336004820152602401610623565b600080546001600160a01b038381166001600160a01b0319831681178455604051919092169283917f8be0079c531659141344cd1fd0a4f28419497f9722a3daafe3b4186f6b6457e09190a35050565b604080516101c08101825260008082526020820181905290918201908152602001606081526020016060815260200160608152602001600081526020016000815260200160008152602001600081526020016000815260200160006005811115611db857611db8611de5565b815260006020820152606060409091015290565b600060208284031215611dde57600080fd5b5035919050565b634e487b7160e01b600052602160045260246000fd5b60048110611e0b57611e0b611de5565b9052565b6000815180845260005b81811015611e3557602081850181015186830182015201611e19565b506000602082860101526020601f19601f83011685010191505092915050565b60068110611e0b57611e0b611de5565b8e81526001600160a01b038e166020820152611e84604082018e611dfb565b6101c060608201526000611e9c6101c083018e611e0f565b8281036080840152611eae818e611e0f565b905082810360a0840152611ec2818d611e0f565b90508a60c08401528960e0840152886101008401528761012084015286610140840152611ef3610160840187611e55565b8415156101808401528281036101a0840152611f0f8185611e0f565b9150509f9e505050505050505050505050505050565b80356001600160a01b0381168114611f3c57600080fd5b919050565b600060208284031215611f5357600080fd5b611f5c82611f25565b9392505050565b634e487b7160e01b600052604160045260246000fd5b600082601f830112611f8a57600080fd5b813567ffffffffffffffff80821115611fa557611fa5611f63565b604051601f8301601f19908116603f01168101908282118183101715611fcd57611fcd611f63565b81604052838152866020858801011115611fe657600080fd5b836020870160208301376000602085830101528094505050505092915050565b600080600080600060a0868803121561201e57600080fd5b85356004811061202d57600080fd5b9450602086013567ffffffffffffffff8082111561204a57600080fd5b61205689838a01611f79565b9550604088013591508082111561206c57600080fd5b61207889838a01611f79565b9450606088013591508082111561208e57600080fd5b61209a89838a01611f79565b935060808801359150808211156120b057600080fd5b506120bd88828901611f79565b9150509295509295909350565b600080604083850312156120dd57600080fd5b82359150602083013560ff811681146120f557600080fd5b809150509250929050565b6000806040838503121561211357600080fd5b8235915061212360208401611f25565b90509250929050565b60208152815160208201526000602083015161215360408401826001600160a01b03169052565b5060408301516121666060840182611dfb565b5060608301516101c08060808501526121836101e0850183611e0f565b91506080850151601f19808685030160a08701526121a18483611e0f565b935060a08701519150808685030160c08701526121be8483611e0f565b60c088015160e08881019190915288015161010080890191909152880151610120808901919091528801516101408089019190915288015161016080890191909152880151909450915061018061221781880184611e55565b87015191506101a061222c8782018415159052565b8701518685039091018387015290506122458382611e0f565b9695505050505050565b600181811c9082168061226357607f821691505b60208210810361228357634e487b7160e01b600052602260045260246000fd5b50919050565b602080825260129082015271141c9bdc1bdcd85b081b9bdd08199bdd5b9960721b604082015260600190565b6000602082840312156122c757600080fd5b5051919050565b634e487b7160e01b600052601160045260246000fd5b6000600182016122f6576122f66122ce565b5060010190565b8082018082111561150e5761150e6122ce565b601f82111561235657600081815260208120601f850160051c810160208610156123375750805b601f850160051c820191505b81811015611a3f57828155600101612343565b505050565b815167ffffffffffffffff81111561237557612375611f63565b61238981612383845461224f565b84612310565b602080601f8311600181146123be57600084156123a65750858301515b600019600386901b1c1916600185901b178555611a3f565b600085815260208120601f198616915b828110156123ed578886015182559484019460019091019084016123ce565b508582101561240b5787850151600019600388901b60f8161c191681555b5050505050600190811b01905550565b6124258186611dfb565b60806020820152600061243b6080830186611e0f565b6040830194909452506060015292915050565b808202811582820484141761150e5761150e6122ce565b60008261248257634e487b7160e01b600052601260045260246000fd5b50049056fea264697066735822122077a0d0747259e66d62952dad604b8e9dcfc5f4d7e2db03a2bc137c750e37376064736f6c63430008140033",
  "linkReferences": {},
  "deployedLinkReferences": {}
}