{
  "_format": "hh-sol-artifact-1",
  "contractName": "TubeToken",
  "sourceName": "contracts/TubeToken.sol",
  "abi": [
    {
      "inputs": [],
      "stateMutability": "nonpayable",
      "type": "constructor"
    },
    {
      "inputs": [
        {
          "internalType": "address",
          "name": "spender",
          "type": "address"
        },
        {
          "internalType": "uint256",
          "name": "allowance",
          "type": "uint256"
        },
        {
          "internalType": "uint256",
          "name": "needed",
          "type": "uint256"
        }
      ],
      "name": "ERC20InsufficientAllowance",
      "type": "error"
    },
    {
      "inputs": [
        {
          "internalType": "address",
          "name": "sender",
          "type": "address"
        },
        {
          "internalType": "uint256",
          "name": "balance",
          "type": "uint256"
        },
        {
          "internalType": "uint256",
          "name": "needed",
          "type": "uint256"
        }
      ],
      "name": "ERC20InsufficientBalance",
      "type": "error"
    },
    {
      "inputs": [
        {
          "internalType": "address",
          "name": "approver",
          "type": "address"
        }
      ],
      "name": "ERC20InvalidApprover",
      "type": "error"
    },
    {
      "inputs": [
        {
          "internalType": "address",
          "name": "receiver",
          "type": "address"
        }
      ],
      "name": "ERC20InvalidReceiver",
      "type": "error"
    },
    {
      "inputs": [
        {
          "internalType": "address",
          "name": "sender",
          "type": "address"
        }
      ],
      "name": "ERC20InvalidSender",
      "type": "error"
    },
    {
      "inputs": [
        {
          "internalType": "address",
          "name": "spender",
          "type": "address"
        }
      ],
      "name": "ERC20InvalidSpender",
      "type": "error"
    },
    {
      "inputs": [
        {
          "internalType": "address",
          "name": "owner",
          "type": "address"
        }
      ],
      "name": "OwnableInvalidOwner",
      "type": "error"
    },
    {
      "inputs": [
        {
          "internalType": "address",
          "name": "account",
          "type": "address"
        }
      ],
      "name": "OwnableUnauthorizedAccount",
      "type": "error"
    },
    {
      "inputs": [],
      "name": "ReentrancyGuardReentrantCall",
      "type": "error"
    },
    {
      "anonymous": false,
      "inputs": [
        {
          "indexed": true,
          "internalType": "address",
          "name": "owner",
          "type": "address"
        },
        {
          "indexed": true,
          "internalType": "address",
          "name": "spender",
          "type": "address"
        },
        {
          "indexed": false,
          "internalType": "uint256",
          "name": "value",
          "type": "uint256"
        }
      ],
      "name": "Approval",
      "type": "event"
    },
    {
      "anonymous": false,
      "inputs": [
        {
          "indexed": true,
          "internalType": "address",
          "name": "contributor",
          "type": "address"
        },
        {
          "indexed": false,
          "internalType": "bytes32",
          "name": "contributionHash",
          "type": "bytes32"
        },
        {
          "indexed": false,
          "internalType": "uint256",
          "name": "score",
          "type": "uint256"
        }
      ],
      "name": "ContributionValidated",
      "type": "event"
    },
    {
      "anonymous": false,
      "inputs": [
        {
          "indexed": true,
          "internalType": "address",
          "name": "previousOwner",
          "type": "address"
        },
        {
          "indexed": true,
          "internalType": "address",
          "name": "newOwner",
          "type": "address"
        }
      ],
      "name": "OwnershipTransferred",
      "type": "event"
    },
    {
      "anonymous": false,
      "inputs": [
        {
          "indexed": true,
          "internalType": "address",
          "name": "contributor",
          "type": "address"
        },
        {
          "indexed": false,
          "internalType": "uint256",
          "name": "newScore",
          "type": "uint256"
        }
      ],
      "name": "QualityScoreUpdated",
      "type": "event"
    },
    {
      "anonymous": false,
      "inputs": [
        {
          "indexed": true,
          "internalType": "address",
          "name": "contributor",
          "type": "address"
        },
        {
          "indexed": false,
          "internalType": "uint256",
          "name": "amount",
          "type": "uint256"
        },
        {
          "indexed": false,
          "internalType": "string",
          "name": "dataType",
          "type": "string"
        }
      ],
      "name": "RewardMinted",
      "type": "event"
    },
    {
      "anonymous": false,
      "inputs": [
        {
          "indexed": true,
          "internalType": "address",
          "name": "from",
          "type": "address"
        },
        {
          "indexed": true,
          "internalType": "address",
          "name": "to",
          "type": "address"
        },
        {
          "indexed": false,
          "internalType": "uint256",
          "name": "value",
          "type": "uint256"
        }
      ],
      "name": "Transfer",
      "type": "event"
    },
    {
      "anonymous": false,
      "inputs": [
        {
          "indexed": true,
          "internalType": "address",
          "name": "validator",
          "type": "address"
        }
      ],
      "name": "ValidatorAdded",
      "type": "event"
    },
    {
      "anonymous": false,
      "inputs": [
        {
          "indexed": true,
          "internalType": "address",
          "name": "validator",
          "type": "address"
        }
      ],
      "name": "ValidatorRemoved",
      "type": "event"
    },
    {
      "inputs": [],
      "name": "INITIAL_MINT",
      "outputs": [
        {
          "internalType": "uint256",
          "name": "",
          "type": "uint256"
        }
      ],
      "stateMutability": "view",
      "type": "function"
    },
    {
      "inputs": [],
      "name": "MAX_SUPPLY",
      "outputs": [
        {
          "internalType": "uint256",
          "name": "",
          "type": "uint256"
        }
      ],
      "stateMutability": "view",
      "type": "function"
    },
    {
      "inputs": [
        {
          "internalType": "address",
          "name": "validator",
          "type": "address"
        }
      ],
      "name": "addValidator",
      "outputs": [],
      "stateMutability": "nonpayable",
      "type": "function"
    },
    {
      "inputs": [
        {
          "internalType": "address",
          "name": "owner",
          "type": "address"
        },
        {
          "internalType": "address",
          "name": "spender",
          "type": "address"
        }
      ],
      "name": "allowance",
      "outputs": [
        {
          "internalType": "uint256",
          "name": "",
          "type": "uint256"
        }
      ],
      "stateMutability": "view",
      "type": "function"
    },
    {
      "inputs": [
        {
          "internalType": "address",
          "name": "spender",
          "type": "address"
        },
        {
          "internalType": "uint256",
          "name": "value",
          "type": "uint256"
        }
      ],
      "name": "approve",
      "outputs": [
        {
          "internalType": "bool",
          "name": "",
          "type": "bool"
        }
      ],
      "stateMutability": "nonpayable",
      "type": "function"
    },
    {
      "inputs": [
        {
          "internalType": "address",
          "name": "account",
          "type": "address"
        }
      ],
      "name": "balanceOf",
      "outputs": [
        {
          "internalType": "uint256",
          "name": "",
          "type": "uint256"
        }
      ],
      "stateMutability": "view",
      "type": "function"
    },
    {
      "inputs": [],
      "name": "baseRewardPerContribution",
      "outputs": [
        {
          "internalType": "uint256",
          "name": "",
          "type": "uint256"
        }
      ],
      "stateMutability": "view",
      "type": "function"
    },
    {
      "inputs": [
        {
          "internalType": "uint256",
          "name": "value",
          "type": "uint256"
        }
      ],
      "name": "burn",
      "outputs": [],
      "stateMutability": "nonpayable",
      "type": "function"
    },
    {
      "inputs": [
        {
          "internalType": "address",
          "name": "account",
          "type": "address"
        },
        {
          "internalType": "uint256",
          "name": "value",
          "type": "uint256"
        }
      ],
      "name": "burnFrom",
      "outputs": [],
      "stateMutability": "nonpayable",
      "type": "function"
    },
    {
      "inputs": [],
      "name": "circulatingSupply",
      "outputs": [
        {
          "internalType": "uint256",
          "name": "",
          "type": "uint256"
        }
      ],
      "stateMutability": "view",
      "type": "function"
    },
    {
      "inputs": [
        {
          "internalType": "address",
          "name": "",
          "type": "address"
        }
      ],
      "name": "contributorScores",
      "outputs": [
        {
          "internalType": "uint256",
          "name": "",
          "type": "uint256"
        }
      ],
      "stateMutability": "view",
      "type": "function"
    },
    {
      "inputs": [],
      "name": "decimals",
      "outputs": [
        {
          "internalType": "uint8",
          "name": "",
          "type": "uint8"
        }
      ],
      "stateMutability": "view",
      "type": "function"
    },
    {
      "inputs": [
        {
          "internalType": "address",
          "name": "contributor",
          "type": "address"
        }
      ],
      "name": "getContributorScore",
      "outputs": [
        {
          "internalType": "uint256",
          "name": "",
          "type": "uint256"
        }
      ],
      "stateMutability": "view",
      "type": "function"
    },
    {
      "inputs": [
        {
          "internalType": "bytes32",
          "name": "contributionHash",
          "type": "bytes32"
        }
      ],
      "name": "isContributionProcessed",
      "outputs": [
        {
          "internalType": "bool",
          "name": "",
          "type": "bool"
        }
      ],
      "stateMutability": "view",
      "type": "function"
    },
    {
      "inputs": [
        {
          "internalType": "address",
          "name": "",
          "type": "address"
        }
      ],
      "name": "lastContributionTime",
      "outputs": [
        {
          "internalType": "uint256",
          "name": "",
          "type": "uint256"
        }
      ],
      "stateMutability": "view",
      "type": "function"
    },
    {
      "inputs": [
        {
          "internalType": "address",
          "name": "contributor",
          "type": "address"
        },
        {
          "internalType": "bytes32",
          "name": "contributionHash",
          "type": "bytes32"
        },
        {
          "internalType": "uint256",
          "name": "qualityScore",
          "type": "uint256"
        },
        {
          "internalType": "string",
          "name": "dataType",
          "type": "string"
        }
      ],
      "name": "mintForContribution",
      "outputs": [],
      "stateMutability": "nonpayable",
      "type": "function"
    },
    {
      "inputs": [],
      "name": "name",
      "outputs": [
        {
          "internalType": "string",
          "name": "",
          "type": "string"
        }
      ],
      "stateMutability": "view",
      "type": "function"
    },
    {
      "inputs": [],
      "name": "owner",
      "outputs": [
        {
          "internalType": "address",
          "name": "",
          "type": "address"
        }
      ],
      "stateMutability": "view",
      "type": "function"
    },
    {
      "inputs": [
        {
          "internalType": "bytes32",
          "name": "",
          "type": "bytes32"
        }
      ],
      "name": "processedContributions",
      "outputs": [
        {
          "internalType": "bool",
          "name": "",
          "type": "bool"
        }
      ],
      "stateMutability": "view",
      "type": "function"
    },
    {
      "inputs": [],
      "name": "qualityMultiplier",
      "outputs": [
        {
          "internalType": "uint256",
          "name": "",
          "type": "uint256"
        }
      ],
      "stateMutability": "view",
      "type": "function"
    },
    {
      "inputs": [
        {
          "internalType": "address",
          "name": "validator",
          "type": "address"
        }
      ],
      "name": "removeValidator",
      "outputs": [],
      "stateMutability": "nonpayable",
      "type": "function"
    },
    {
      "inputs": [],
      "name": "renounceOwnership",
      "outputs": [],
      "stateMutability": "nonpayable",
      "type": "function"
    },
    {
      "inputs": [],
      "name": "symbol",
      "outputs": [
        {
          "internalType": "string",
          "name": "",
          "type": "string"
        }
      ],
      "stateMutability": "view",
      "type": "function"
    },
    {
      "inputs": [],
      "name": "totalSupply",
      "outputs": [
        {
          "internalType": "uint256",
          "name": "",
          "type": "uint256"
        }
      ],
      "stateMutability": "view",
      "type": "function"
    },
    {
      "inputs": [
        {
          "internalType": "address",
          "name": "to",
          "type": "address"
        },
        {
          "internalType": "uint256",
          "name": "value",
          "type": "uint256"
        }
      ],
      "name": "transfer",
      "outputs": [
        {
          "internalType": "bool",
          "name": "",
          "type": "bool"
        }
      ],
      "stateMutability": "nonpayable",
      "type": "function"
    },
    {
      "inputs": [
        {
          "internalType": "address",
          "name": "from",
          "type": "address"
        },
        {
          "internalType": "address",
          "name": "to",
          "type": "address"
        },
        {
          "internalType": "uint256",
          "name": "value",
          "type": "uint256"
        }
      ],
      "name": "transferFrom",
      "outputs": [
        {
          "internalType": "bool",
          "name": "",
          "type": "bool"
        }
      ],
      "stateMutability": "nonpayable",
      "type": "function"
    },
    {
      "inputs": [
        {
          "internalType": "address",
          "name": "newOwner",
          "type": "address"
        }
      ],
      "name": "transferOwnership",
      "outputs": [],
      "stateMutability": "nonpayable",
      "type": "function"
    },
    {
      "inputs": [
        {
          "internalType": "uint256",
          "name": "newReward",
          "type": "uint256"
        }
      ],
      "name": "updateBaseReward",
      "outputs": [],
      "stateMutability": "nonpayable",
      "type": "function"
    },
    {
      "inputs": [
        {
          "internalType": "address",
          "name": "",
          "type": "address"
        }
      ],
      "name": "validators",
      "outputs": [
        {
          "internalType": "bool",
          "name": "",
          "type": "bool"
        }
      ],
      "stateMutability": "view",
      "type": "function"
    }
  ],
  "bytecode": "0x608060405268056bc75e2d63100000600755600a6008553480156200002357600080fd5b50336040518060400160405280600d81526020016c2a3ab132a220a7902a37b5b2b760991b815250604051806040016040528060048152602001635455424560e01b815250816003908162000079919062000391565b50600462000088828262000391565b5050506001600160a01b038116620000bb57604051631e4fbdf760e01b8152600060048201526024015b60405180910390fd5b620000c68162000129565b506001600655620000e3336a52b7d2dcc80cd2e40000006200017b565b33600081815260096020526040808220805460ff19166001179055517fe366c1c0452ed8eec96861e9e54141ebff23c9ec89fe27b996b45f5ec38849879190a262000485565b600580546001600160a01b038381166001600160a01b0319831681179093556040519116919082907f8be0079c531659141344cd1fd0a4f28419497f9722a3daafe3b4186f6b6457e090600090a35050565b6001600160a01b038216620001a75760405163ec442f0560e01b815260006004820152602401620000b2565b620001b560008383620001b9565b5050565b6001600160a01b038316620001e8578060026000828254620001dc91906200045d565b909155506200025c9050565b6001600160a01b038316600090815260208190526040902054818110156200023d5760405163391434e360e21b81526001600160a01b03851660048201526024810182905260448101839052606401620000b2565b6001600160a01b03841660009081526020819052604090209082900390555b6001600160a01b0382166200027a5760028054829003905562000299565b6001600160a01b03821660009081526020819052604090208054820190555b816001600160a01b0316836001600160a01b03167fddf252ad1be2c89b69c2b068fc378daa952ba7f163c4a11628f55a4df523b3ef83604051620002df91815260200190565b60405180910390a3505050565b634e487b7160e01b600052604160045260246000fd5b600181811c908216806200031757607f821691505b6020821081036200033857634e487b7160e01b600052602260045260246000fd5b50919050565b601f8211156200038c57600081815260208120601f850160051c81016020861015620003675750805b601f850160051c820191505b81811015620003885782815560010162000373565b5050505b505050565b81516001600160401b03811115620003ad57620003ad620002ec565b620003c581620003be845462000302565b846200033e565b602080601f831160018114620003fd5760008415620003e45750858301515b600019600386901b1c1916600185901b17855562000388565b600085815260208120601f198616915b828110156200042e578886015182559484019460019091019084016200040d565b50858210156200044d5787850151600019600388901b60f8161c191681555b5050505050600190811b01905550565b808201808211156200047f57634e487b7160e01b600052601160045260246000fd5b92915050565b61136380620004956000396000f3fe608060405234801561001057600080fd5b50600436106101cf5760003560e01c806374982b3211610104578063a9059cbb116100a2578063cb20e5ad11610071578063cb20e5ad14610409578063dd62ed3e14610412578063f2fde38b1461044b578063fa52c7d81461045e57600080fd5b8063a9059cbb146103ae578063c2d35fb2146103c1578063c98d51b3146103d4578063ca7df92c146103f757600080fd5b8063904f5021116100de578063904f50211461035e5780639358928b1461037e57806395d89b4114610386578063a03039c21461038e57600080fd5b806374982b321461031d57806379cc6790146103305780638da5cb5b1461034357600080fd5b806340a141ff116101715780636078cb8e1161014b5780636078cb8e146102c057806367cee033146102c957806370a08231146102ec578063715018a61461031557600080fd5b806340a141ff1461028557806342966c681461029a5780634d238c8e146102ad57600080fd5b80631c7173e0116101ad5780631c7173e01461022757806323b872dd14610250578063313ce5671461026357806332cb6b0c1461027257600080fd5b806306fdde03146101d4578063095ea7b3146101f257806318160ddd14610215575b600080fd5b6101dc610481565b6040516101e9919061106f565b60405180910390f35b6102056102003660046110a5565b610513565b60405190151581526020016101e9565b6002545b6040519081526020016101e9565b6102196102353660046110cf565b6001600160a01b03166000908152600a602052604090205490565b61020561025e3660046110ea565b61052d565b604051601281526020016101e9565b6102196b033b2e3c9fd0803ce800000081565b6102986102933660046110cf565b610551565b005b6102986102a8366004611126565b61060f565b6102986102bb3660046110cf565b61061c565b61021960085481565b6102056102d7366004611126565b6000908152600b602052604090205460ff1690565b6102196102fa3660046110cf565b6001600160a01b031660009081526020819052604090205490565b61029861072f565b61029861032b366004611126565b610743565b61029861033e3660046110a5565b6107ab565b6005546040516001600160a01b0390911681526020016101e9565b61021961036c3660046110cf565b600a6020526000908152604090205481565b6102196107c4565b6101dc6107d4565b61021961039c3660046110cf565b600c6020526000908152604090205481565b6102056103bc3660046110a5565b6107e3565b6102986103cf366004611155565b6107f1565b6102056103e2366004611126565b600b6020526000908152604090205460ff1681565b6102196a52b7d2dcc80cd2e400000081565b61021960075481565b61021961042036600461122a565b6001600160a01b03918216600090815260016020908152604080832093909416825291909152205490565b6102986104593660046110cf565b610bea565b61020561046c3660046110cf565b60096020526000908152604090205460ff1681565b6060600380546104909061125d565b80601f01602080910402602001604051908101604052809291908181526020018280546104bc9061125d565b80156105095780601f106104de57610100808354040283529160200191610509565b820191906000526020600020905b8154815290600101906020018083116104ec57829003601f168201915b5050505050905090565b600033610521818585610c25565b60019150505b92915050565b60003361053b858285610c37565b610546858585610cb6565b506001949350505050565b610559610d15565b6001600160a01b03811660009081526009602052604090205460ff166105c65760405162461bcd60e51b815260206004820152601a60248201527f54756265546f6b656e3a206e6f7420612076616c696461746f7200000000000060448201526064015b60405180910390fd5b6001600160a01b038116600081815260096020526040808220805460ff19169055517fe1434e25d6611e0db941968fdc97811c982ac1602e951637d206f5fdda9dd8f19190a250565b6106193382610d42565b50565b610624610d15565b6001600160a01b03811661067a5760405162461bcd60e51b815260206004820152601c60248201527f54756265546f6b656e3a20696e76616c69642076616c696461746f720000000060448201526064016105bd565b6001600160a01b03811660009081526009602052604090205460ff16156106e35760405162461bcd60e51b815260206004820152601e60248201527f54756265546f6b656e3a20616c726561647920612076616c696461746f72000060448201526064016105bd565b6001600160a01b038116600081815260096020526040808220805460ff19166001179055517fe366c1c0452ed8eec96861e9e54141ebff23c9ec89fe27b996b45f5ec38849879190a250565b610737610d15565b6107416000610d78565b565b61074b610d15565b600081116107a65760405162461bcd60e51b815260206004820152602260248201527f54756265546f6b656e3a20726577617264206d75737420626520706f73697469604482015261766560f01b60648201526084016105bd565b600755565b6107b6823383610c37565b6107c08282610d42565b5050565b60006107cf60025490565b905090565b6060600480546104909061125d565b600033610521818585610cb6565b3360009081526009602052604090205460ff1661085c5760405162461bcd60e51b8152602060048201526024808201527f54756265546f6b656e3a2063616c6c6572206973206e6f7420612076616c696460448201526330ba37b960e11b60648201526084016105bd565b6000838152600b6020526040902054839060ff16156108cf5760405162461bcd60e51b815260206004820152602960248201527f54756265546f6b656e3a20636f6e747269627574696f6e20616c7265616479206044820152681c1c9bd8d95cdcd95960ba1b60648201526084016105bd565b6108d7610dca565b6001600160a01b03851661092d5760405162461bcd60e51b815260206004820152601e60248201527f54756265546f6b656e3a20696e76616c696420636f6e7472696275746f72000060448201526064016105bd565b6008548311156109895760405162461bcd60e51b815260206004820152602160248201527f54756265546f6b656e3a207175616c6974792073636f726520746f6f206869676044820152600d60fb1b60648201526084016105bd565b6b033b2e3c9fd0803ce800000061099f60025490565b106109ec5760405162461bcd60e51b815260206004820152601d60248201527f54756265546f6b656e3a206d617820737570706c79207265616368656400000060448201526064016105bd565b6000848152600b60205260408120805460ff19166001179055600854600754610a169086906112ad565b610a2091906112c4565b6001600160a01b0387166000908152600c602052604081205491925090610a4790426112e6565b905062015180811015610a6e576064610a6183606e6112ad565b610a6b91906112c4565b91505b6b033b2e3c9fd0803ce800000082610a8560025490565b610a8f91906112f9565b1115610ab157600254610aae906b033b2e3c9fd0803ce80000006112e6565b91505b6001600160a01b0387166000908152600a602052604081208054879290610ad99084906112f9565b90915550506001600160a01b0387166000908152600c60205260409020429055610b038783610df4565b60408051878152602081018790526001600160a01b038916917ff34b9b3e03b07e78846bd65fd3c18b5487c813a7da9dd2a0f6c2b0b494677987910160405180910390a2866001600160a01b03167f765f02a4009bbabeb5bcacb42308293ab54fa68b299d9cf67bc945e839be96608386604051610b8292919061130c565b60405180910390a26001600160a01b0387166000818152600a60209081526040918290205491519182527f020a06d171e540fd9f47e2504664e6aa6cad38491d36b66aa02285cc1190a82d910160405180910390a25050610be36001600655565b5050505050565b610bf2610d15565b6001600160a01b038116610c1c57604051631e4fbdf760e01b8152600060048201526024016105bd565b61061981610d78565b610c328383836001610e2a565b505050565b6001600160a01b03838116600090815260016020908152604080832093861683529290522054600019811015610cb05781811015610ca157604051637dc7a0d960e11b81526001600160a01b038416600482015260248101829052604481018390526064016105bd565b610cb084848484036000610e2a565b50505050565b6001600160a01b038316610ce057604051634b637e8f60e11b8152600060048201526024016105bd565b6001600160a01b038216610d0a5760405163ec442f0560e01b8152600060048201526024016105bd565b610c32838383610eff565b6005546001600160a01b031633146107415760405163118cdaa760e01b81523360048201526024016105bd565b6001600160a01b038216610d6c57604051634b637e8f60e11b8152600060048201526024016105bd565b6107c082600083610eff565b600580546001600160a01b038381166001600160a01b0319831681179093556040519116919082907f8be0079c531659141344cd1fd0a4f28419497f9722a3daafe3b4186f6b6457e090600090a35050565b600260065403610ded57604051633ee5aeb560e01b815260040160405180910390fd5b6002600655565b6001600160a01b038216610e1e5760405163ec442f0560e01b8152600060048201526024016105bd565b6107c060008383610eff565b6001600160a01b038416610e545760405163e602df0560e01b8152600060048201526024016105bd565b6001600160a01b038316610e7e57604051634a1406b160e11b8152600060048201526024016105bd565b6001600160a01b0380851660009081526001602090815260408083209387168352929052208290558015610cb057826001600160a01b0316846001600160a01b03167f8c5be1e5ebec7d5bd14f71427d1e84f3dd0314c0f7b2291e5b200ac8c7c3b92584604051610ef191815260200190565b60405180910390a350505050565b6001600160a01b038316610f2a578060026000828254610f1f91906112f9565b90915550610f9c9050565b6001600160a01b03831660009081526020819052604090205481811015610f7d5760405163391434e360e21b81526001600160a01b038516600482015260248101829052604481018390526064016105bd565b6001600160a01b03841660009081526020819052604090209082900390555b6001600160a01b038216610fb857600280548290039055610fd7565b6001600160a01b03821660009081526020819052604090208054820190555b816001600160a01b0316836001600160a01b03167fddf252ad1be2c89b69c2b068fc378daa952ba7f163c4a11628f55a4df523b3ef8360405161101c91815260200190565b60405180910390a3505050565b6000815180845260005b8181101561104f57602081850181015186830182015201611033565b506000602082860101526020601f19601f83011685010191505092915050565b6020815260006110826020830184611029565b9392505050565b80356001600160a01b03811681146110a057600080fd5b919050565b600080604083850312156110b857600080fd5b6110c183611089565b946020939093013593505050565b6000602082840312156110e157600080fd5b61108282611089565b6000806000606084860312156110ff57600080fd5b61110884611089565b925061111660208501611089565b9150604084013590509250925092565b60006020828403121561113857600080fd5b5035919050565b634e487b7160e01b600052604160045260246000fd5b6000806000806080858703121561116b57600080fd5b61117485611089565b93506020850135925060408501359150606085013567ffffffffffffffff8082111561119f57600080fd5b818701915087601f8301126111b357600080fd5b8135818111156111c5576111c561113f565b604051601f8201601f19908116603f011681019083821181831017156111ed576111ed61113f565b816040528281528a602084870101111561120657600080fd5b82602086016020830137600060208483010152809550505050505092959194509250565b6000806040838503121561123d57600080fd5b61124683611089565b915061125460208401611089565b90509250929050565b600181811c9082168061127157607f821691505b60208210810361129157634e487b7160e01b600052602260045260246000fd5b50919050565b634e487b7160e01b600052601160045260246000fd5b808202811582820484141761052757610527611297565b6000826112e157634e487b7160e01b600052601260045260246000fd5b500490565b8181038181111561052757610527611297565b8082018082111561052757610527611297565b8281526040602082015260006113256040830184611029565b94935050505056fea26469706673582212204ba554777eea19b7cd8279ffc0ef0b26622704dba716bd32e2b2e52c52703ec664736f6c63430008140033",
  "linkReferences": {},
  "deployedLinkReferences": {}
}