{
  "_format": "hh-sol-artifact-1",
  "contractName": "TubeTEEIntegration",
  "sourceName": "contracts/TubeTEEIntegration.sol",
  "abi": [
    {
      "inputs": [
        {
          "internalType": "address",
          "name": "_dataPoolAddress",
          "type": "address"
        }
      ],
      "stateMutability": "nonpayable",
      "type": "constructor"
    },
    {
      "inputs": [
        {
          "internalType": "address",
          "name": "owner",
          "type": "address"
        }
      ],
      "name": "OwnableInvalidOwner",
      "type": "error"
    },
    {
      "inputs": [
        {
          "internalType": "address",
          "name": "account",
          "type": "address"
        }
      ],
      "name": "OwnableUnauthorizedAccount",
      "type": "error"
    },
    {
      "inputs": [],
      "name": "ReentrancyGuardReentrantCall",
      "type": "error"
    },
    {
      "anonymous": false,
      "inputs": [
        {
          "indexed": true,
          "internalType": "bytes32",
          "name": "dataHash",
          "type": "bytes32"
        },
        {
          "indexed": false,
          "internalType": "address",
          "name": "attester",
          "type": "address"
        },
        {
          "indexed": false,
          "internalType": "uint256",
          "name": "timestamp",
          "type": "uint256"
        }
      ],
      "name": "DataAttested",
      "type": "event"
    },
    {
      "anonymous": false,
      "inputs": [
        {
          "indexed": true,
          "internalType": "address",
          "name": "previousOwner",
          "type": "address"
        },
        {
          "indexed": true,
          "internalType": "address",
          "name": "newOwner",
          "type": "address"
        }
      ],
      "name": "OwnershipTransferred",
      "type": "event"
    },
    {
      "anonymous": false,
      "inputs": [
        {
          "indexed": true,
          "internalType": "address",
          "name": "node",
          "type": "address"
        }
      ],
      "name": "TEENodeDeactivated",
      "type": "event"
    },
    {
      "anonymous": false,
      "inputs": [
        {
          "indexed": true,
          "internalType": "address",
          "name": "node",
          "type": "address"
        },
        {
          "indexed": false,
          "internalType": "string",
          "name": "endpoint",
          "type": "string"
        },
        {
          "indexed": false,
          "internalType": "uint256",
          "name": "stake",
          "type": "uint256"
        }
      ],
      "name": "TEENodeRegistered",
      "type": "event"
    },
    {
      "anonymous": false,
      "inputs": [
        {
          "indexed": true,
          "internalType": "bytes32",
          "name": "jobId",
          "type": "bytes32"
        },
        {
          "indexed": false,
          "internalType": "uint256",
          "name": "qualityScore",
          "type": "uint256"
        },
        {
          "indexed": false,
          "internalType": "address",
          "name": "node",
          "type": "address"
        }
      ],
      "name": "ValidationCompleted",
      "type": "event"
    },
    {
      "anonymous": false,
      "inputs": [
        {
          "indexed": true,
          "internalType": "bytes32",
          "name": "jobId",
          "type": "bytes32"
        },
        {
          "indexed": false,
          "internalType": "address",
          "name": "requester",
          "type": "address"
        },
        {
          "indexed": false,
          "internalType": "bytes32",
          "name": "dataHash",
          "type": "bytes32"
        }
      ],
      "name": "ValidationJobCreated",
      "type": "event"
    },
    {
      "inputs": [
        {
          "internalType": "uint256",
          "name": "",
          "type": "uint256"
        }
      ],
      "name": "activeNodes",
      "outputs": [
        {
          "internalType": "address",
          "name": "",
          "type": "address"
        }
      ],
      "stateMutability": "view",
      "type": "function"
    },
    {
      "inputs": [
        {
          "internalType": "bytes32",
          "name": "dataHash",
          "type": "bytes32"
        },
        {
          "internalType": "bytes",
          "name": "signature",
          "type": "bytes"
        }
      ],
      "name": "attestData",
      "outputs": [],
      "stateMutability": "nonpayable",
      "type": "function"
    },
    {
      "inputs": [
        {
          "internalType": "bytes32",
          "name": "dataHash",
          "type": "bytes32"
        },
        {
          "internalType": "string",
          "name": "dataType",
          "type": "string"
        }
      ],
      "name": "createValidationJob",
      "outputs": [
        {
          "internalType": "bytes32",
          "name": "",
          "type": "bytes32"
        }
      ],
      "stateMutability": "nonpayable",
      "type": "function"
    },
    {
      "inputs": [],
      "name": "dataPoolAddress",
      "outputs": [
        {
          "internalType": "address",
          "name": "",
          "type": "address"
        }
      ],
      "stateMutability": "view",
      "type": "function"
    },
    {
      "inputs": [],
      "name": "deactivateTEENode",
      "outputs": [],
      "stateMutability": "nonpayable",
      "type": "function"
    },
    {
      "inputs": [],
      "name": "getActiveNodeCount",
      "outputs": [
        {
          "internalType": "uint256",
          "name": "",
          "type": "uint256"
        }
      ],
      "stateMutability": "view",
      "type": "function"
    },
    {
      "inputs": [
        {
          "internalType": "bytes32",
          "name": "jobId",
          "type": "bytes32"
        }
      ],
      "name": "getJob",
      "outputs": [
        {
          "components": [
            {
              "internalType": "bytes32",
              "name": "jobId",
              "type": "bytes32"
            },
            {
              "internalType": "address",
              "name": "requester",
              "type": "address"
            },
            {
              "internalType": "bytes32",
              "name": "dataHash",
              "type": "bytes32"
            },
            {
              "internalType": "string",
              "name": "dataType",
              "type": "string"
            },
            {
              "internalType": "uint256",
              "name": "timestamp",
              "type": "uint256"
            },
            {
              "internalType": "bool",
              "name": "completed",
              "type": "bool"
            },
            {
              "internalType": "uint256",
              "name": "qualityScore",
              "type": "uint256"
            },
            {
              "internalType": "address",
              "name": "assignedNode",
              "type": "address"
            }
          ],
          "internalType": "struct TubeTEEIntegration.ValidationJob",
          "name": "",
          "type": "tuple"
        }
      ],
      "stateMutability": "view",
      "type": "function"
    },
    {
      "inputs": [
        {
          "internalType": "address",
          "name": "node",
          "type": "address"
        }
      ],
      "name": "getNodeJobs",
      "outputs": [
        {
          "internalType": "bytes32[]",
          "name": "",
          "type": "bytes32[]"
        }
      ],
      "stateMutability": "view",
      "type": "function"
    },
    {
      "inputs": [],
      "name": "jobCounter",
      "outputs": [
        {
          "internalType": "uint256",
          "name": "",
          "type": "uint256"
        }
      ],
      "stateMutability": "view",
      "type": "function"
    },
    {
      "inputs": [],
      "name": "minStakeRequired",
      "outputs": [
        {
          "internalType": "uint256",
          "name": "",
          "type": "uint256"
        }
      ],
      "stateMutability": "view",
      "type": "function"
    },
    {
      "inputs": [
        {
          "internalType": "address",
          "name": "",
          "type": "address"
        },
        {
          "internalType": "uint256",
          "name": "",
          "type": "uint256"
        }
      ],
      "name": "nodeJobs",
      "outputs": [
        {
          "internalType": "bytes32",
          "name": "",
          "type": "bytes32"
        }
      ],
      "stateMutability": "view",
      "type": "function"
    },
    {
      "inputs": [],
      "name": "owner",
      "outputs": [
        {
          "internalType": "address",
          "name": "",
          "type": "address"
        }
      ],
      "stateMutability": "view",
      "type": "function"
    },
    {
      "inputs": [
        {
          "internalType": "string",
          "name": "endpoint",
          "type": "string"
        }
      ],
      "name": "registerTEENode",
      "outputs": [],
      "stateMutability": "payable",
      "type": "function"
    },
    {
      "inputs": [],
      "name": "renounceOwnership",
      "outputs": [],
      "stateMutability": "nonpayable",
      "type": "function"
    },
    {
      "inputs": [
        {
          "internalType": "bytes32",
          "name": "jobId",
          "type": "bytes32"
        },
        {
          "internalType": "uint256",
          "name": "qualityScore",
          "type": "uint256"
        },
        {
          "internalType": "bytes",
          "name": "proof",
          "type": "bytes"
        }
      ],
      "name": "submitValidationResult",
      "outputs": [],
      "stateMutability": "nonpayable",
      "type": "function"
    },
    {
      "inputs": [
        {
          "internalType": "address",
          "name": "",
          "type": "address"
        }
      ],
      "name": "teeNodes",
      "outputs": [
        {
          "internalType": "address",
          "name": "nodeAddress",
          "type": "address"
        },
        {
          "internalType": "string",
          "name": "endpoint",
          "type": "string"
        },
        {
          "internalType": "bool",
          "name": "isActive",
          "type": "bool"
        },
        {
          "internalType": "uint256",
          "name": "stake",
          "type": "uint256"
        },
        {
          "internalType": "uint256",
          "name": "reputation",
          "type": "uint256"
        },
        {
          "internalType": "uint256",
          "name": "jobsCompleted",
          "type": "uint256"
        }
      ],
      "stateMutability": "view",
      "type": "function"
    },
    {
      "inputs": [
        {
          "internalType": "address",
          "name": "newOwner",
          "type": "address"
        }
      ],
      "name": "transferOwnership",
      "outputs": [],
      "stateMutability": "nonpayable",
      "type": "function"
    },
    {
      "inputs": [
        {
          "internalType": "uint256",
          "name": "newMinStake",
          "type": "uint256"
        }
      ],
      "name": "updateMinStake",
      "outputs": [],
      "stateMutability": "nonpayable",
      "type": "function"
    },
    {
      "inputs": [
        {
          "internalType": "bytes32",
          "name": "",
          "type": "bytes32"
        }
      ],
      "name": "validationJobs",
      "outputs": [
        {
          "internalType": "bytes32",
          "name": "jobId",
          "type": "bytes32"
        },
        {
          "internalType": "address",
          "name": "requester",
          "type": "address"
        },
        {
          "internalType": "bytes32",
          "name": "dataHash",
          "type": "bytes32"
        },
        {
          "internalType": "string",
          "name": "dataType",
          "type": "string"
        },
        {
          "internalType": "uint256",
          "name": "timestamp",
          "type": "uint256"
        },
        {
          "internalType": "bool",
          "name": "completed",
          "type": "bool"
        },
        {
          "internalType": "uint256",
          "name": "qualityScore",
          "type": "uint256"
        },
        {
          "internalType": "address",
          "name": "assignedNode",
          "type": "address"
        }
      ],
      "stateMutability": "view",
      "type": "function"
    }
  ],
  "bytecode": "0x6080604052683635c9adc5dea000006007553480156200001e57600080fd5b5060405162001a4538038062001a45833981016040819052620000419162000147565b33806200006957604051631e4fbdf760e01b8152600060048201526024015b60405180910390fd5b6200007481620000f7565b50600180556001600160a01b038116620000d15760405162461bcd60e51b815260206004820152601860248201527f496e76616c69642044617461506f6f6c20616464726573730000000000000000604482015260640162000060565b600280546001600160a01b0319166001600160a01b039290921691909117905562000179565b600080546001600160a01b038381166001600160a01b0319831681178455604051919092169283917f8be0079c531659141344cd1fd0a4f28419497f9722a3daafe3b4186f6b6457e09190a35050565b6000602082840312156200015a57600080fd5b81516001600160a01b03811681146200017257600080fd5b9392505050565b6118bc80620001896000396000f3fe6080604052600436106101145760003560e01c80638c72ef65116100a0578063bad232fc11610064578063bad232fc1461030d578063c5ea2b871461032d578063cbba96fe14610342578063f2fde38b14610355578063f729cf0d1461037557600080fd5b80638c72ef651461025b5780638cdb442f1461027b5780638da5cb5b1461029b5780638e7ab3ae146102cd57806396f9d983146102ed57600080fd5b8063271e5423116100e7578063271e5423146101d7578063351e377714610205578063502f68261461021a57806350355d7614610230578063715018a61461024657600080fd5b8063145d5fc01461011957806315a0fbe71461015657806316ae2d03146101835780631f23663b146101a5575b600080fd5b34801561012557600080fd5b50610139610134366004611296565b6103a2565b60405161014d9897969594939291906112f5565b60405180910390f35b34801561016257600080fd5b5061017661017136600461136f565b610485565b60405161014d9190611391565b34801561018f57600080fd5b506101a361019e366004611478565b6104f1565b005b3480156101b157600080fd5b506101c56101c036600461136f565b6105af565b60405161014d969594939291906114bf565b3480156101e357600080fd5b506101f76101f2366004611508565b61067b565b60405190815260200161014d565b34801561021157600080fd5b506101a36106ac565b34801561022657600080fd5b506101f760075481565b34801561023c57600080fd5b506101f760085481565b34801561025257600080fd5b506101a3610876565b34801561026757600080fd5b506101a3610276366004611532565b61088a565b34801561028757600080fd5b506101a3610296366004611296565b610aac565b3480156102a757600080fd5b506000546001600160a01b03165b6040516001600160a01b03909116815260200161014d565b3480156102d957600080fd5b506002546102b5906001600160a01b031681565b3480156102f957600080fd5b506102b5610308366004611296565b610ab9565b34801561031957600080fd5b506101f7610328366004611478565b610ae3565b34801561033957600080fd5b506006546101f7565b6101a3610350366004611582565b610d26565b34801561036157600080fd5b506101a361037036600461136f565b610f50565b34801561038157600080fd5b50610395610390366004611296565b610f8b565b60405161014d91906115bf565b600460205260009081526040902080546001820154600283015460038401805493946001600160a01b03909316939192916103dc90611649565b80601f016020809104026020016040519081016040528092919081815260200182805461040890611649565b80156104555780601f1061042a57610100808354040283529160200191610455565b820191906000526020600020905b81548152906001019060200180831161043857829003601f168201915b505050506004830154600584015460068501546007909501549394919360ff90911692506001600160a01b031688565b6001600160a01b0381166000908152600560209081526040918290208054835181840281018401909452808452606093928301828280156104e557602002820191906000526020600020905b8154815260200190600101908083116104d1575b50505050509050919050565b3360009081526003602052604090206002015460ff1661052c5760405162461bcd60e51b815260040161052390611683565b60405180910390fd5b60008151116105715760405162461bcd60e51b8152602060048201526011602482015270496e76616c6964207369676e617475726560781b6044820152606401610523565b6040805133815242602082015283917f7d0aa1c2e462ded76e5e5a3972e2eb0f5c6c1f18cdd97de26ca7620b218b8b31910160405180910390a25050565b600360205260009081526040902080546001820180546001600160a01b0390921692916105db90611649565b80601f016020809104026020016040519081016040528092919081815260200182805461060790611649565b80156106545780601f1061062957610100808354040283529160200191610654565b820191906000526020600020905b81548152906001019060200180831161063757829003601f168201915b50505050600283015460038401546004850154600590950154939460ff9092169390925086565b6005602052816000526040600020818154811061069757600080fd5b90600052602060002001600091509150505481565b3360009081526003602052604090206002015460ff166106de5760405162461bcd60e51b815260040161052390611683565b33600090815260036020526040812060028101805460ff19169055905b60065481101561080057336001600160a01b031660068281548110610722576107226116b3565b6000918252602090912001546001600160a01b0316036107ee576006805461074c906001906116df565b8154811061075c5761075c6116b3565b600091825260209091200154600680546001600160a01b039092169183908110610788576107886116b3565b9060005260206000200160006101000a8154816001600160a01b0302191690836001600160a01b0316021790555060068054806107c7576107c76116f2565b600082815260209020810160001990810180546001600160a01b0319169055019055610800565b806107f881611708565b9150506106fb565b50600381015415610848576003810180546000918290556040519091339183156108fc0291849190818181858888f19350505050158015610845573d6000803e3d6000fd5b50505b60405133907f88331244617ff11146bd86a6640d5a36e2910cc48099ac346ef879b08a2af40990600090a250565b61087e6110db565b6108886000611108565b565b3360009081526003602052604090206002015460ff166108bc5760405162461bcd60e51b815260040161052390611683565b6108c4611158565b600083815260046020526040902060078101546001600160a01b0316331461092e5760405162461bcd60e51b815260206004820152601960248201527f4e6f742061737369676e656420746f2074686973206e6f6465000000000000006044820152606401610523565b600581015460ff161561097b5760405162461bcd60e51b8152602060048201526015602482015274129bd888185b1c9958591e4818dbdb5c1b195d1959605a1b6044820152606401610523565b600a8311156109c45760405162461bcd60e51b8152602060048201526015602482015274496e76616c6964207175616c6974792073636f726560581b6044820152606401610523565b6000825111610a055760405162461bcd60e51b815260206004820152600d60248201526c24b73b30b634b210383937b7b360991b6044820152606401610523565b6005808201805460ff1916600117905560068201849055336000908152600360205260408120918201805491610a3a83611708565b919050555060078410610a62576001816004016000828254610a5c9190611721565b90915550505b6040805185815233602082015286917fb1c0126bafb1ac7c82ebbb2546f341096093030678734a7fd7a8112a31170ea6910160405180910390a25050610aa760018055565b505050565b610ab46110db565b600755565b60068181548110610ac957600080fd5b6000918252602090912001546001600160a01b0316905081565b6002546000906001600160a01b03163314610b395760405162461bcd60e51b815260206004820152601660248201527513db9b1e4811185d18541bdbdb0818d85b8818d85b1b60521b6044820152606401610523565b6008805460009185919083610b4d83611708565b909155506040805160208101939093528201524260608201526080016040516020818303038152906040528051906020012090506000610b8b611182565b90506001600160a01b038116610bdc5760405162461bcd60e51b81526020600482015260166024820152754e6f20617661696c61626c6520544545206e6f64657360501b6044820152606401610523565b604080516101008101825283815233602080830191825282840189815260608401898152426080860152600060a0860181905260c086018190526001600160a01b0388811660e08801528982526004909452959095208451815592516001840180546001600160a01b031916919093161790915551600282015591519091906003820190610c6a9082611782565b506080820151600482015560a08201516005808301805460ff19169215159290921790915560c0830151600683015560e090920151600790910180546001600160a01b0319166001600160a01b039283161790558216600090815260209182526040808220805460018101825590835291839020909101849055805133815291820187905283917ff693916d00c0a268e31e5f8d1fadb4eed0667d99e34e6c08bcbd6bbd2d589bf3910160405180910390a25090505b92915050565b610d2e611158565b600754341015610d755760405162461bcd60e51b8152602060048201526012602482015271496e73756666696369656e74207374616b6560701b6044820152606401610523565b6000815111610db95760405162461bcd60e51b815260206004820152601060248201526f125b9d985b1a5908195b991c1bda5b9d60821b6044820152606401610523565b3360009081526003602052604090206002015460ff1615610e1c5760405162461bcd60e51b815260206004820152601760248201527f4e6f646520616c726561647920726567697374657265640000000000000000006044820152606401610523565b6040805160c081018252338082526020808301858152600184860181905234606086015260646080860152600060a08601819052938452600390925293909120825181546001600160a01b0319166001600160a01b03909116178155925191929190820190610e8b9082611782565b5060408281015160028301805460ff1916911515919091179055606083015160038301556080830151600483015560a090920151600590910155600680546001810182556000919091527ff652222313e28459528d920b65115c16c04f3efc82aaedc97be59f3f377c0d3f018054336001600160a01b0319909116811790915590517f0cb2d40fe0892ac0a89b8e65da36fdb9ff356ef2b8f1824394d3d05a069de5cc90610f3c9084903490611842565b60405180910390a2610f4d60018055565b50565b610f586110db565b6001600160a01b038116610f8257604051631e4fbdf760e01b815260006004820152602401610523565b610f4d81611108565b6040805161010080820183526000808352602080840182905283850182905260608085018190526080850183905260a0850183905260c0850183905260e085018390528683526004825291859020855193840186528054845260018101546001600160a01b031691840191909152600281015494830194909452600384018054939492939184019161101c90611649565b80601f016020809104026020016040519081016040528092919081815260200182805461104890611649565b80156110955780601f1061106a57610100808354040283529160200191611095565b820191906000526020600020905b81548152906001019060200180831161107857829003601f168201915b505050918352505060048201546020820152600582015460ff1615156040820152600682015460608201526007909101546001600160a01b031660809091015292915050565b6000546001600160a01b031633146108885760405163118cdaa760e01b8152336004820152602401610523565b600080546001600160a01b038381166001600160a01b0319831681178455604051919092169283917f8be0079c531659141344cd1fd0a4f28419497f9722a3daafe3b4186f6b6457e09190a35050565b60026001540361117b57604051633ee5aeb560e01b815260040160405180910390fd5b6002600155565b60065460009081036111945750600090565b6006546008546000916111a691611864565b90506000600682815481106111bd576111bd6116b3565b60009182526020808320909101546001600160a01b0316808352600390915260409091206002015490915060ff16156111f65792915050565b60005b60065481101561128c57600360006006838154811061121a5761121a6116b3565b60009182526020808320909101546001600160a01b0316835282019290925260400190206002015460ff161561127a576006818154811061125d5761125d6116b3565b6000918252602090912001546001600160a01b0316949350505050565b8061128481611708565b9150506111f9565b5060009250505090565b6000602082840312156112a857600080fd5b5035919050565b6000815180845260005b818110156112d5576020818501810151868301820152016112b9565b506000602082860101526020601f19601f83011685010191505092915050565b8881526001600160a01b03888116602083015260408201889052610100606083018190526000916113288483018a6112af565b608085019890985295151560a0840152505060c081019290925290911660e090910152949350505050565b80356001600160a01b038116811461136a57600080fd5b919050565b60006020828403121561138157600080fd5b61138a82611353565b9392505050565b6020808252825182820181905260009190848201906040850190845b818110156113c9578351835292840192918401916001016113ad565b50909695505050505050565b634e487b7160e01b600052604160045260246000fd5b600082601f8301126113fc57600080fd5b813567ffffffffffffffff80821115611417576114176113d5565b604051601f8301601f19908116603f0116810190828211818310171561143f5761143f6113d5565b8160405283815286602085880101111561145857600080fd5b836020870160208301376000602085830101528094505050505092915050565b6000806040838503121561148b57600080fd5b82359150602083013567ffffffffffffffff8111156114a957600080fd5b6114b5858286016113eb565b9150509250929050565b6001600160a01b038716815260c0602082018190526000906114e3908301886112af565b9515156040830152506060810193909352608083019190915260a09091015292915050565b6000806040838503121561151b57600080fd5b61152483611353565b946020939093013593505050565b60008060006060848603121561154757600080fd5b8335925060208401359150604084013567ffffffffffffffff81111561156c57600080fd5b611578868287016113eb565b9150509250925092565b60006020828403121561159457600080fd5b813567ffffffffffffffff8111156115ab57600080fd5b6115b7848285016113eb565b949350505050565b602081528151602082015260018060a01b03602083015116604082015260408201516060820152600060608301516101008060808501526116046101208501836112af565b9150608085015160a085015260a0850151151560c085015260c085015160e085015260e085015161163f828601826001600160a01b03169052565b5090949350505050565b600181811c9082168061165d57607f821691505b60208210810361167d57634e487b7160e01b600052602260045260246000fd5b50919050565b6020808252601690820152754e6f7420616e2061637469766520544545206e6f646560501b604082015260600190565b634e487b7160e01b600052603260045260246000fd5b634e487b7160e01b600052601160045260246000fd5b81810381811115610d2057610d206116c9565b634e487b7160e01b600052603160045260246000fd5b60006001820161171a5761171a6116c9565b5060010190565b80820180821115610d2057610d206116c9565b601f821115610aa757600081815260208120601f850160051c8101602086101561175b5750805b601f850160051c820191505b8181101561177a57828155600101611767565b505050505050565b815167ffffffffffffffff81111561179c5761179c6113d5565b6117b0816117aa8454611649565b84611734565b602080601f8311600181146117e557600084156117cd5750858301515b600019600386901b1c1916600185901b17855561177a565b600085815260208120601f198616915b82811015611814578886015182559484019460019091019084016117f5565b50858210156118325787850151600019600388901b60f8161c191681555b5050505050600190811b01905550565b60408152600061185560408301856112af565b90508260208301529392505050565b60008261188157634e487b7160e01b600052601260045260246000fd5b50069056fea26469706673582212206095a931dd6174ff148d36dfc5c4a1f01cdeddc7ea00461922392faa9d16e9bc64736f6c63430008140033",
  "linkReferences": {},
  "deployedLinkReferences": {}
}